:040000006F00007E0F
:100004000000000000000000C8020000CA02000056
:1000140000000000DE0700000000000000000000F7
:10002400DE070000DE070000000000000000000002
:10003400DE07000000000000DE07000000000000F2
:10004400DE070000DE070000DE070000DE07000018
:10005400DE070000DE070000DE070000DE07000008
:10006400DE070000DE070000DE070000DE070000F8
:10007400DE070000DE070000DE070000DE070000E8
:10008400DE070000DE070000DE070000DE070000D8
:10009400DE070000DE070000DE070000DE070000C8
:1000A400DE070000DE070000DE070000DE070000B8
:1000B400DE070000DE070000DE070000DE070000A8
:1000C400DE070000DE070000DE070000DE07000098
:1000D400DE070000DE070000DE070000DE07000088
:1000E400DE070000DE070000DE070000DE07000078
:1000F400DE070000DE070000DE070000DE07000068
:1001040000000000DE070000DE070000DE0700003C
:10011400DE070000DE070000DE070000DE07000047
:10012400DE070000DE070000DE070000DE07000037
:10013400DE070000DE070000DE070000DE07000027
:10014400DE070000DE070000DE070000DE07000017
:10015400DE07000052400000DE070000DE0700005A
:10016400DE070000DE070000DE070000DE070000F7
:10017400DE070000DE070000DE070000DE070000E7
:10018400DE070000DE070000DE070000DE070000D7
:10019400DE070000DE070000DE070000DE070000C7
:1001A400000000000000000000000000000000004B
:0C01B4000000000000000000000000003F
:1001C000397101436EC619A0397141536AC866CAB4
:1001D00062CC5ECE19A0397101535AD056D252D496
:1001E0004ED64AD826DA22DC06DE3301614082820E
:1001F00041114AC026C222C406C68282B24D4101C4
:10020000024D924C224CB24B4101024B924A224A7F
:10021000B2494101024992442244B24041018280E4
:100220003D432A876373C3029377F700BDEFADE5C3
:10023000937606FF3D8ABA960CC34CC30CC74CC7D5
:100240004107E36BD7FE11E28280B306C3408A0602
:100250009702000096966780A6002307B700A306C2
:10026000B7002306B700A305B7002305B700A30412
:10027000B7002304B700A303B7002303B700A3020A
:10028000B7002302B700A301B7002301B700A30002
:10029000B7002300B700828093F5F50F9396850091
:1002A000D58D93960501D58D61B79396270097025A
:1002B000000096968682E78086FA9680C1171D8F89
:1002C0003E96E374C3F8A5B701A0B707EFBE37E7C2
:1002D00000E0938707083CC701A0EFF27FF14111CE
:1002E000854511453714014002C202C402C6EF0021
:1002F000F0289307000241498D444C001305048007
:100300007C824AC626C4EF00007385452145EF0074
:10031000F02685674C00130504C07C824AC626C4BB
:10032000EF0060711305048093050002EF00807DEB
:100330008565130504C0EF00E07C4101E1BDEFF2EB
:100340003FEB0545EF00702E0145EF009028094571
:10035000EF0090260545EF0070290545EF00B02A13
:100360000565854513050580EF00701F65B5EFF243
:100370003FE8F137B7E700E03707200023A4E71094
:1003800051BDEFF2FFE641118545414502C202C46D
:1003900002C6EF00B01E930700087C8291473EC65C
:1003A0004C008D47371501403EC429446925A301FF
:1003B00001009305000837150140EF00C0739C81D0
:1003C0007D141374F40F3E951375F50FC88175F005
:1003D0009C8193F7F70F91E301A0410125BDEFF256
:1003E0003FE10945EF00A07F3D22EF00B032513FD1
:1003F00085451545EF0090183705300085451305F4
:1004000005401927D93D1926EF40B045EF4060124D
:1004100075DDEF405054EF407073E5BFB7170240F1
:100420009843B706FFF041111367170098C3D843EC
:1004300037060200758FD8C39843B706F7FEFD163E
:10044000758F98C39843B706FCFFFD16758F98C348
:10045000D843B70601FFFD16758FD8C39843B7067A
:1004600000ECFD16758F98C33707FF0098C723A6C9
:10047000070202C402C69843C166558F98C3B716D7
:10048000024005679C42F18F3EC6A24785073EC4E5
:10049000B24781E7A247E397E7FEB71702409C43C4
:1004A0001397E7006357070685473EC632478547DF
:1004B000631FF704B7170240D843B706C1FFFD1604
:1004C000D8C3D843D8C3D84313670740D8C3D84349
:1004D000758FD8C3D843B7062900558FD8C3984322
:1004E000B7060001558F98C3984393166700E3DD64
:1004F00006FED843B7160240719BD8C3D843136792
:100500002700D8C32147DC42B18BE39EE7FE4101BF
:10051000828002C661BFB7160240D842B7070020EA
:100520001146318B938707086305C700214663088E
:10053000C70237177A001307072098C337170240FE
:10054000584311839376F7003707002013070700FD
:100550003697142398433357D70098C38280D842E4
:10056000D442416649833D8BF18E1306270015CF97
:100570003D47630FE6024147630FE6024547814569
:100580006313E6004146A1E2374702400327078094
:10059000418B0DC737177A00130707203306C702B0
:1005A00090C3C9DD9843058349BF81454946E1BFF2
:1005B00085453546C9BF81453D46F1B737173D00F2
:1005C00013070790E1BF3715024058559316F700FF
:1005D000585563DF060411833D8B930617003717C8
:1005E0007A00130707203357D70298C35455A182C6
:1005F000BD8A8DE295463307D702058398C3371726
:100600000240585794433D8B050733D7E60298C301
:10061000984369B705456394A600E546E9BF3D45A3
:100620006396A600D1463387E602C9BF8906E5BFB7
:100630003D8B9306170037177A00130707203357AF
:10064000D702F1B7EFF2DFBA79711306C002814524
:100650004800F936854505451927B7470040938777
:1006600047403EC2C147370402403EC693070008D8
:100670003ECC130504038D673ED402C402C802CAEF
:1006800002CE02D002D202D6ED22B75700409387A5
:1006900047803EC2B76700209387C7513EC44C00D5
:1006A00093070020130504033EC802C60D2E85459E
:1006B000130504038D264561B1BEEFF27FB34111EE
:1006C00002C202C402C62AC085476396F5028D673E
:1006D0007C8385476316F602930700607C848567F8
:1006E0007C8237550040B1478A85130505807C859B
:1006F000812F410105B68947E39DF5FC8967C9BF94
:100700008947E310F6FE93070040C9BFEFF2BFAC84
:100710004111854511459D25854521458525854501
:10072000370504009D2D85450545152DB71401405D
:10073000138504809305004002C202C402C6C92684
:10074000930900400D49C1474C00138504C0231292
:1007500031014AC43EC637540040F12C8357C4804F
:100760004C00138504C0C207C183CD9BC207C1835F
:100770002316F4808567938707807C829307800423
:100780003EC6552CE1474C00138504C03EC61304F9
:100790000480231231014AC4792C6D352285054627
:1007A00093050004812771650146814513050520E5
:1007B000293785452285212F410181BCEFF25FA3B6
:1007C0001C3118215031A2075D8F3C214C21C207FA
:1007D000D98F383162073365F700C53525BC01A0D4
:1007E000970100209381010A178100201301818164
:1007F000177500001305059A9705002093858580DD
:100800001386018563FAC5008322050023A05500E5
:1008100011059105E3EAC5FE17650020130585CC97
:1008200097650020938505276377B5002320050091
:100830001105E36DB5FEFD42739002BCAD427390AD
:100840004280B7620000938282087390023097F270
:10085000FFFF9382627B93E2320073905230EFF09D
:10086000FFBB970200009382C2B7739012347300EB
:1008700020301C4141677917F98F1CC123200500E6
:100880002322050023240500B70702402326050084
:10089000138787006317E500D8431367F700D8C3B1
:1008A00082801387C7016316E500D8431367070FDB
:1008B000FDB7138707036318E500D8438566938661
:1008C00006F0558FE9BF138747046315E500D84349
:1008D000BD66C5BF138787056316E500D843B70615
:1008E0000F00C5B71387C7066316E500D843B706E0
:1008F000F000C1BF138707086316E500D843B706A9
:10090000000FC1B7138787406319E50003A747406D
:100910001367F70023A2E74082801387C74163175C
:10092000E50003A747401367070FEDB79387074319
:10093000631BF500B707024003A74740856693860F
:1009400006F0558FC1BFB7070240138747446316AF
:10095000E50003A74740BD66EDB7138787456317DA
:10096000E50003A74740B7060F00E1BF1387C7465E
:100970006317E50003A74740B706F000D9B7138710
:1009800007486317E50003A74740B706000F55BFA8
:10099000138707496319E50003A7474D1367F7005D
:1009A00023AAE74C82801387074A6317E50003A751
:1009B000474D1367070FEDB71387074B6319E50022
:1009C00003A7474D8566938606F0558FD1BF1387E1
:1009D000074CE319E5FC03A7474DBD66FDB71C4175
:1009E00061773D0794517D8F9C45D58F9449D58F74
:1009F000D449D58F944DD58FD44DD58FD451D58F23
:100A00009455D58FD98F1CC1DC455CC19C411CC558
:100A1000DC415CC582801C4189C593E717001CC17D
:100A2000828041677917F98FDDBF4CC182804841D0
:100A30004205418182809C4513F7070113F8F700B6
:100A400001C7D8413368E8008E2113F7F50F39C389
:100A500018418146854E3D4F930F800293028004DA
:100A6000214E3396DE00B3F8C50063111603939848
:100A7000260033131F011343F3FF3377E300B3184A
:100A8000180133E7E800639FF70550C98506E39A2C
:100A9000C6FD18C11307F00F6375B7045441214612
:100AA000854E3D4F930F800293028004414EB398D0
:100AB000CE0033F715016392E802131726000117E1
:100AC0003313EF001343F3FFB376D3003317E8007B
:100AD000D98E639DF701232A15010506E319C6FD8A
:100AE00054C18280E39457FA10C94DB7E39757FE7B
:100AF00023281501DDB708456D8D3335A0008280B0
:100B00000CC982804CC98280B7070140635A050432
:100B1000DC4F93560501131805013707300013F613
:100B2000F60013580801B376E50063500506639B91
:100B3000E602930606010D46B316D60093C6F6FFED
:100B4000F58F99C9135755011377F73F12073317DC
:100B5000E800D98F63570504370701405CCF8280D6
:100B6000DC4345BF1317B500635607008D46B396A7
:100B7000C600E9B7135755011377F73F120733172C
:100B8000E8001347F7FFF98F6DBF6390E602370661
:100B900001405442370700F17D17F98F758F58C215
:100BA000D5F1370701405CC382801317B500635C41
:100BB00007008D46B396C60093C6F6FFFD8EB707B5
:100BC000000FD58FF1BF1357550112073317E800F7
:100BD0001347F7FF7D8FB707000FD98FD1B7B767DE
:100BE000002023A0A74E8280371702405C43914625
:100BF000B18B6385D700A1466382D706B7177A0009
:100C0000938707201CC1371602405C42370700203B
:100C1000130707019183BD8BBA9794231C41B3D767
:100C2000D7005CC15442A1829D8ABA969422B3D661
:100C3000D70014C55442AD829D8A36971823B3D786
:100C4000E7005CC5584239839376370013874180AB
:100C500036971823B3D7E7021CC982805C435843F8
:100C6000C166C983758FB7F6FF1F83A6C670BD8B9B
:100C700089071396160163480600C546014663922C
:100C8000D702C94739A88946638FD702BD46638E0C
:100C9000D702C146638ED702C54601466393D7008B
:100CA000C1471DEF3747024003270780418B05C727
:100CB00037177A0013070720B307F7021CC121D6A4
:100CC0001C41858381B701466DBF0546B547D1BF3D
:100CD0000146BD47F9B737173D0013070790E9BF35
:100CE000B7150240D8559316F700D85563DF0604B0
:100CF00011833D8B9306170037177A0013070720DF
:100D00003357D70218C1D455A182BD8A8DE29546CA
:100D10003307D702058318C13717024058571441CB
:100D20003D8B050733D7E60218C1184171B78545D9
:100D30006394B600E546E9BFBD456396B600D1466B
:100D40003387E602C9BF8906E5BF3D8B93061700CE
:100D500037177A00130707203357D702F1B799C521
:100D6000371702405C4B5D8D48CB8280B71702403D
:100D7000D84B1345F5FF798DC8CB828099C53717BD
:100D800002401C4F5D8D08CF8280B7170240984FFC
:100D90001345F5FF798D88CF828099C537170240BA
:100DA0005C4F5D8D48CF8280B7170240D84F134506
:100DB000F5FF798DC8CF8280B7170240D857B706A4
:100DC00000F9FD16758FD8D7D8576205598DC8D749
:100DD0008280B7170240D857B70600F8FD16758F06
:100DE000D8D7D8576E05598DC8D78280B71702401B
:100DF000D857B70600D0FD16758FD8D7D8577205CB
:100E0000598DC8D7828009C9371702405C57B70689
:100E10000040D58F5CD78280B7160240DC5637077A
:100E200000C07D17F98FDCD68280371702405C57EF
:100E30007E05860785835CD75C575D8D48D78280A9
:100E4000EFF20FBB1629F577FD17F58FF621DA259E
:100E50007971D58F1EA95625FD779387379FF58F1A
:100E6000D6212A842EC6D58F9625D58FB625D58F27
:100E70005EA55E29C207C18393F7F7CFD98F5EA91C
:100E800068089D33B747014093870780B245631ECA
:100E9000F402A2576547B387E702984193064006DC
:100EA0000A07B3D7E70233D7D702B3F7D70212073F
:100EB000920793872703B3D7D702BD8BD98FC20779
:100EC000C1831EA445616FF0EFB49257E1B791C59D
:100ED0005E250967D98F5EA582805A25F977FD17AF
:100EE000F98FD5BF5E2901C6DD8D4EA9828093C5DD
:100EF000F5FFFD8DDDBF93F5F51F4EA182800A2120
:100F00006D8D3335A000828093C5F5FFC205C18188
:100F10000EA18280B707002083A7070837177A0041
:100F200013070720B3D7E7023767002093F7F70FBF
:100F30002303F74E1307803EB387E702376700208D
:100F40002312F74E8280EFF20FA9B7440140AE8919
:100F50003289014493840480634524014A856FF0FB
:100F6000CFAA930500042685593F65DDB387890024
:100F70008385070026850504C205C181AD3FE9BF11
:100F8000138781801C43B7760020938606A93E957F
:100F9000636BD500B78600209386068063E5A600C4
:100FA00008C33E858280FD57EDBFEFF26FA11C2183
:100FB0007D47797193C607086367D700EF10001D5E
:100FC00045616FF0AFA3138715003AC49CA1754724
:100FD0002E846374F7006F10E00E1D678A071307F5
:100FE00047C2BA979C432A8A82871C311307000F95
:100FF000638FE708636FF7000D476388E7021147C7
:10100000638EE7060145B709020008B089094E95CD
:1010100045BF1307E00F6382E7081307F00FE39360
:10102000E7FE238105008947B5A0B7F6FF1F03A798
:10103000867E83A7C67EB70560001316F700D60725
:1010400071834607ED8FD98F3D82D18F03A6067F2E
:10105000B7640020B77500003D825E065D8E938503
:10106000C5C913850476EF4020662546938504762E
:1010700013052400EF402048254571B71946938594
:10108000018413052400EF4000471945ADBFCD474B
:10109000BCA185473CB00945BDB7A147BCA10545EA
:1010A0009DB71C3181CF05476384E702FD579CB192
:1010B000B709020085094165050591BF3821B717B9
:1010C000014093870780058B19C713070010D8CB01
:1010D000A3000400F1BF1307001098CBD5BF1C314B
:1010E00091CB05476388E70009476388E706814796
:1010F0001CB051A60547B767002085451145238ED2
:10110000E77002D202D402D69539996737190140A7
:101110002312F1028D44C1474C10130509803ED6BD
:1011200026D4EFF05F91996513050980D13A854582
:101130004145A931930700102312F1024C10D14709
:10114000371501403ED626D4EFF0FF8E93050010F0
:10115000371501407532854761BF376700208545E7
:101160001145230EF770B714014002D202D402D603
:10117000313199670D49C1494C1013850480231200
:10118000F1024ED64AD4EFF01F8B99651385048087
:10119000853A85454145DD36930700102312F1025B
:1011A0004C10D147371501403ED64AD4EFF0BF88E6
:1011B0009305001037150140EFF09F9485452145B8
:1011C000753EE1774C10138504C02312F1024ED610
:1011D0004AD4EFF05F8691672312F1024C109147D9
:1011E000138504C03ED64AD4EFF0FF84A165138571
:1011F00004C0EFF0FF908947E5BDB7190140B7671C
:10120000002011498D4413850980238E07704C10EE
:1012100099672312F102231301024AD626D4EFF074
:101220009F81930700104C10371501402312F102E3
:101230004AD626D4EFF03F80F177138509C04C10D1
:101240002312F1024AD626D48549EFF0CFFEA3003F
:10125000040095B53C211831A207D98F2D47B387DB
:10126000E7023ED29257FD173ED2EDFF95B523819E
:101270000500A380050089493DBD5C2183493500F7
:101280002421A207B3E737018349550013FA14005C
:1012900003491500C209B3E7F90083496500E20973
:1012A000B3E9F900630B0A00B7170140137719007F
:1012B000938707806DCB116798CB93FA2400638BDB
:1012C0000A00B7170140137729009387078079CF69
:1012D000096798CB13FB4400630C0B0013572900DC
:1012E000B7170140058B938707C061C7216798CB6B
:1012F000939B840193DB8B4163DA0B009357790056
:10130000C5CFB71701401307001098CB638F0904AE
:101310001356190093552900135559009356790017
:101320003717014093F4040263080A008327C7803B
:10133000B983858BE31AF9FE63880A008327C78087
:10134000B583858BE312F6FE63080B008327C7C0C5
:10135000BD83858BE39AF5FC91C079F563D70B00CB
:101360005C47A183858BE391F6FC37170140032688
:10137000C7808327C7808325C7C0832687C0B183E2
:101380005847B581898B91893982CD8F058AAD8285
:10139000D18FA18A0583D58F13770708D98F1CB009
:1013A000B709060001BB1167D8CB01BF0967D8CBCD
:1013B00015B72167D8CB2DBFB71701401307001011
:1013C000D8CB0145EF20101991B738211C312207E5
:1013D000D98F383142075D8F5C21E2075D8F11E7BD
:1013E000FD579CB1B7090400F1B1B7177A00B76691
:1013F00000209387F71F9386C67163F9E70085473E
:101400009CB28547DCC2A3000400E9BFB727F40003
:101410009387F73FBA97B3D7E702A3800600094640
:1014200005476385C7000D4733D7E702D8C2E1BF40
:101430008349150093052500639409009309001062
:101440004E859D09EF10105793D93900A300040071
:101450008509C20993E91900B9B91C313767002021
:101460001307C77193F6370089838506858B14AF00
:101470001CBFA3800500C16935B9A38005000431F4
:10148000938A250093072500054A8549FD5CB71B13
:101490000140370B00FF370C3001370D4000FD14C1
:1014A00063969401C209B3E9490131B188231389D4
:1014B00017001374F50319E01304000493870B80DD
:1014C000D843931D85011D0433776701D8C3D843E2
:1014D00093DD8D410D8063DD0D023367A701D8C315
:1014E0005686CA85EF10705389EC03A74B8033777B
:1014F000670123A2EB8003A74B803367870123A2F8
:10150000EB80850963D90D00A29A229ACA8741BF50
:1015100033678701E9B72299A299CDBFA38005005F
:10152000034A1500938A250093072500054985493C
:10153000FD5B7D1A63167A01C209B3E92901A5BED4
:101540008423138B170013F4F40319E0130400042D
:1015500026851D045686DA850D80EF00D043E2040F
:1015600013071400E184B3078B00BA99E3D304FC9A
:10157000A29A22997DBF83491500B767002013877F
:10158000C771230D37019386C7719385C7710146D3
:101590009387C771014785078905636B36013686D6
:1015A00081478506090663ED3701A30004004DB5A8
:1015B0003305CA0028210506A8BFBAB12A97E1BFA2
:1015C000AC3E85070D8F3ABAE9BFB7670020938715
:1015D000C77194230947639AE6021831B8BFBC2F3C
:1015E0006375F7023945EF10800DEF0010479357F0
:1015F000850028A03CB0C169935705016181A30013
:1016000004005CA048B095097DB4FD57D5B41831ED
:10161000B76700209387C771D8A7383134212207D4
:10162000558F9AAB583154212207558FBAABA3007E
:101630000400B7090500BDBCB764002083CDC471A8
:10164000930715003ECA85479384C4716385FD02E4
:101650008947638CFD36382193093500631F076C79
:10166000D247A300040023010400B389F940C20952
:1016700093E9290089B4376900209307794E130D47
:101680003500034C25009389350023800700814BEA
:10169000814C014502C81309794E094B854A6314F0
:1016A0000C0485466313D502638E0C2E8628094AE6
:1016B0004C103945EF10B0426313452D99C40347D0
:1016C0000900FD141377F70F65D7C24728A01CB097
:1016D000D247B307FD4013950701A247B389F940EC
:1016E000B3693501C9BA034A0D0093071D003EC610
:1016F00093762A006380061E63870C0893761A018E
:1017000083DD0401639F56034C105285EF10303D7A
:10171000631A650563880D0083460900FD1D93F675
:10172000F60FFDD2324D83460D0013F626006306F8
:101730000624C18A63930624050D7D1CE3150CFE67
:101740008DB74C103945EF109039631C65016388E3
:101750000D0003470900FD1D1377F70F7DD3814C62
:10176000D1B7814CE31055FD9256910913D68600EE
:10177000238ED9FEA38EC9FE13D60601E182238FE4
:10178000C9FEA38FD9FE93760A01922893751A0099
:10179000CDCA834D2D0083461D0093075D00A20D29
:1017A000B3E6DD00834D3D003EC6C20DB3EDDD0066
:1017B00083464D0003DD2401E206B3EDB6019DC171
:1017C0008145528532CCEF109031631B6501624632
:1017D00031DA834709007D1693F7F70FF5D399B7F0
:1017E000E31255F592284C10528532CCEF10302F71
:1017F000AA8763146503624619C6834609007D16ED
:1018000093F6F60FEDD2D4481256F18E6387DD02BF
:1018100013E507011375F50F31B7D0489256F18ED5
:10182000E31355FFE381DDFEE30F0DFC8346090062
:101830007D1D93F6F60FDDD6F9B7E39557EF814B93
:101840000DA8B1C5E39D0CFE8145528532CCEF1049
:101850001029631C65016246E30306F08347090013
:101860007D1693F7F70FEDD375BDE31D55EB814B57
:10187000854CC2479306FCFF85073EC88347090095
:1018800093F7F70FE39007EA368C324D09BD4C1001
:10189000528532CCEF10B024631C65016246E3032D
:1018A00006E8834709007D1693F7F70FEDD39DBD3A
:1018B000E31A55E79257910993D68700238EF9FED4
:1018C000A38ED9FE93D60701E183238FD9FEA38F80
:1018D000F9FEB5B763840C0483DD04014C1039456F
:1018E000EF10F01F631B6501E38E0DE283460900D4
:1018F000FD1D93F6F60FFDD235B5E31555E31257EE
:10190000910993568700238EE9FEA38ED9FE935644
:1019100007016183238FD9FEA38FE9FE83462D0043
:1019200003471D0093075D00A206D98E03473D00C3
:101930003EC693770A024207D98E03474D006207DD
:10194000558F3AD289C7D8C8814C05451DB783DC6D
:1019500004014C105285EF109018631B6501E3835E
:101960000CDC83470900FD1C93F7F70FFDD3C5BBC3
:10197000E31755DF854B814CEDBD150D7DBB05474C
:10198000E315E5D41257910993568700238EE9FE9B
:10199000A38ED9FE935607016183238FD9FEA38FAF
:1019A000E9FE25B3E3830BD28628094A81453945F0
:1019B000EF10F012E31B45D1E38904D0034709007F
:1019C000FD141377F70F7DD309B3B76A002093870F
:1019D0007A4E238007001C31B82C93893500BCBC9B
:1019E000938A7A4E63F6E734130D3500834C250055
:1019F0000147014A014502C8894B054C639B0C0411
:101A00003A8905476319E50229476305E900294535
:101A1000EF00F04A86280949630D0A2E4C1039451B
:101A2000EF10E0036314252D99C403C70A00FD14C9
:101A30001377F70F65D7C247224728A01CB0D247BB
:101A4000B389E940B307FD40C207B3E937016FF03E
:101A50008FE6034B0D0093071D003EC613791B0054
:101A600093762B002909638F061A63080A089628C3
:101A70006318270313760B0105E64C105A853ACEFE
:101A800036CCEF00D07D724763187505E24699C6E3
:101A900003C60A00FD161376F60F65D23A895DA8D3
:101AA000A9476307F700294536CCEF005041E246CD
:101AB000368A4C103945EF00907A631D7501630B2F
:101AC0000A1803C70A007D1A1377F70F7DD3294937
:101AD000014A49A02947014AE31285FD925691091E
:101AE00013D68600238ED9FEA38EC9FE13D6060117
:101AF000E182238FC9FEA38FD9FE93760B01F1CA31
:101B000083462D0003461D00A206558E83463D00E8
:101B1000C206D18E03464D006206B367D6003ECCA6
:101B200093075D003EC603DD24016305E9004A8595
:101B3000EF00F0389A2881455A853ACEEF0030728E
:101B400063197503724719C783C70A007D1793F796
:101B5000F70FF5D3324D03470D00937627006385C9
:101B60000618418B63120718050DFD1CE3950CFE4A
:101B700049BDE31185FF9A284C105A853ACEEF00F3
:101B8000106EAA87631C7501724719C783C70A00C4
:101B90007D1793F7F70FEDD3EE870DA0D848925637
:101BA000758F631D8501E246638AE60063080D00B8
:101BB00003C70A007D1D1377F70F55DF9256D848EB
:101BC000758FE246638DE61013E507011375F50F77
:101BD00051B763190A106305E9004A85EF00302EFA
:101BE00003DD040181455A85EF007067631B7501B1
:101BF000E3000DEE83C70A007D1D93F7F70FFDD3B9
:101C000091BFE31985F5054AC2479386FCFF850716
:101C10003EC883C70A0093F7F70F8DFF4A87B68C3B
:101C2000324DE9BB630C0A04A9476305F700294557
:101C3000EF00F02896284C10394536CCEF00306282
:101C4000631C7501E24699C603C70A00FD161377A7
:101C5000F70F75D32949FDBDE31E85FF1257910982
:101C600093568700238EE9FEA38ED9FE9356070173
:101C70006183A38FE9FE238FD9FE294703462D00F8
:101C800083461D0093075D002206558E83463D0066
:101C90003EC693770B02C206558E83464D00E20680
:101CA000D18E36D291C7D4C83A89014A0545A9BF19
:101CB0006305E9004A85EF00902003DA04014C1027
:101CC0005A85EF00D059631B7501E3050AE883C705
:101CD0000A007D1A93F7F70FFDD3DDBB014AE30538
:101CE00085F38DBD3A890DB7150D41B50547E31450
:101CF000E5D41257910993568700238EE9FEA38EEF
:101D0000D9FE935607016183238FD9FEA38FE9FE85
:101D10001DB381453945EF009054E31E25D1E38C76
:101D200004D003C70A00FD141377F70F7DD321B346
:101D3000130D250002C80145FDB983C7090093F6BC
:101D4000270091C6C18B81E785097D1701BA9509E6
:101D5000EDBFB764002083C7C47105479384C47185
:101D6000638DE70009476383E718A380050023819B
:101D70000500A38105008D49F9A8376B0020930762
:101D80007B4E834A3500238007003C21A20A9389B9
:101D90004500B3EAFA00130B7B4E63870A14834CA9
:101DA000450093F72C009DEB130C55000149094D9C
:101DB000854D83DB040163962A0F8944FD5A8145D2
:101DC0003945EF10C051631E9506FD1B638B5B0701
:101DD00083470B0093F7F70FFDD3A5A093F71C00E3
:101DE00085CB03D90401894B81456685EF10204FCF
:101DF000631C75016307090483470B007D1993F782
:101E0000F70FFDD3014935A885470149631BF5024A
:101E10000149054C094D63968A0193F71C0091C353
:101E2000B94C83DB04014C106685EF10404B631402
:101E3000A50563880B0083470B00FD1B93F7F70F85
:101E4000FDD3A30024011359890023012401A247D3
:101E500028B0B389F94083474A0037050400898BCD
:101E6000E390078803453A0083472A0022055D8DE9
:101E700005054A05B5B0FD1AE31585FD9257910990
:101E8000050913D78700A38EE9FE13D70701238E18
:101E9000F9FE238FE9FEE183A38FF9FEE39D0AF6A5
:101EA0004DB703471C0083470C00110C22075D8FC0
:101EB0008347ECFFC2075D8F8347FCFFE207D98FA2
:101EC0003ED24C106685EF108041631BA501E38A6A
:101ED0000BF683470B00FD1B93F7F70FFDD395B768
:101EE000E311B5F70509F1B5014529BFB76A00202F
:101EF00093877A4E238007001C31B82C93894500C4
:101F0000BCBC938A7A4E63F5E714034935003C2143
:101F100022093369F900630D0912034C4500137B54
:101F20001C00290B5A85EF00807993772C00E28BF7
:101F3000B9E7930B5A00814D894C054D03C71B002F
:101F400083C70B00910B22075D8F83C7EBFFC2078E
:101F50005D8F83C7FBFFE207D98F9A283ED24C10D2
:101F600062853AC6EF00B02F631A950B324735CB26
:101F700083C70A007D1793F7F70FF5D39DA083DD84
:101F80000401894C81456285EF00702D631C950129
:101F900063890D0483C70A00FD1D93F7F70FFDD376
:101FA000814D81A08547814D631DF502054C294D6A
:101FB000894C63188901B94B6305AB012945EF00D2
:101FC00000709A284C105E853AC6EF0050296311C4
:101FD0009503324719C783C70A007D1793F7F70F98
:101FE000F5D3A300B40193DD8D002301B40185B5C1
:101FF0007D19E31885FF92579109850D13D7870046
:10200000A38EE9FE13D70701238EF9FE238FE9FE85
:10201000E183A38FF9FEE31E09F8E1B7E313A5FD01
:10202000850DE31DB9F1A9476304FB002945412D46
:102030008628094981453945EF007022E31325FBC5
:10204000CDD083C70A00FD1493F7F70FE5D751BF32
:102050000145B9B7B76700209387C77198238546B4
:102060006309D70089466307D702FD571CB06FF09C
:102070004FDC38313C214C1022075D8F5C21C207B8
:102080005D8F5C310145E207D98F3ED2EF102025EC
:102090006FF0EFD91831B8BFBC2FE378F7FC2145BA
:1020A000392D03453A0083472A0022055D8D834779
:1020B0004A00C207C98F03455A0062055D8D352667
:1020C0006FF0EFD6FD5741651CA005056FE05FEF8F
:1020D000EFE26F9014211306F0076391C60494A1F8
:1020E000043137040200416A130925009389250051
:1020F00084B10904FD5A7D1AFD14639554012285AB
:102100006FE0AF90CE854A85EFE03FEA9357050137
:102110002A94337545013E99AA99F9BFEFE0FFE88B
:102120002A84F1BFEFE2CF8CB76700209387C77195
:102130001307400698CB054741119AAF239007003B
:10214000154785451145D8C32386070023AA0700F4
:10215000238D070002C202C402C6EFE03FC293070C
:1021600000107C8237140140D1473EC64C008D4799
:10217000130504803EC4EFE01F8C93070010232A50
:10218000F4801304048041016FE0CF881C21416575
:1021900005059CA182809376F50399E293060004DD
:1021A000B7170140137705049387078005CF0967A8
:1021B00098CBB76E0020938ECE71371E0140216FF1
:1021C000916F13750508850503C3F5FF83A24E00C3
:1021D00021488147C9E209C5B3D707011CA20506FA
:1021E000FDF282800967D8CBE9B7850503C3F5FF07
:1021F00083A24E0021488147A1C61377130093089C
:102200000EC039C723A8E801232AFE8116C632472B
:102210007D173AC66DFF03278EC02328FE8116C4A2
:102220003983058BA248FD1846C4E39D08FE8583CB
:102230001E077D1813531300D98FFD16E31E08FAED
:1022400009C5B3D707011CA20506C5F2410182806A
:1022500023AAE80155BF41114DB7B71701400967DF
:1022600023A8E780116723AAE78037670020930738
:10227000C771DC4339719306C7713ECA52477D1757
:102280003ACA6DFF3717014011662328C7803EC840
:1022900042477D173AC86DFF371701400966232A68
:1022A000C7801166232AC7803EC632477D173AC6CB
:1022B0006DFF3717014011662328C7803EC42247AF
:1022C0007D173AC46DFF371701401166232AC78076
:1022D0003EC212477D173AC26DFF371701401166A3
:1022E0002328C7803EC002477D173AC06DFFB83E25
:1022F00037160140916571EB371801407D46930513
:1023000008809168116323AA65003ED29256FD169B
:1023100036D2EDFE032588C023A815013ED03981B1
:1023200005898256FD1636D0EDFE7E05598D7D1647
:102330001357150069FAB7160140096623A8C6802D
:10234000116623AAC6803EDEF256FD1636DEEDFE8D
:10235000B716014003A586C0116623A8C68039813F
:1023600005893EDCE256FD1636DCEDFE7E05598D14
:10237000916637170140232AD7803EDA52577D17DE
:102380003ADA6DFF3717014091662328D7803ED88F
:1023900042577D173AD86DFF371701408966232AC7
:1023A000D7809166232AD7803ED632577D173AD6FA
:1023B0006DFF3717014091662328D7803ED4A2577E
:1023C000FD173ED4EDFF21618280232AB6803ECEE8
:1023D000F246FD1636CEEDFE2328B6803ECCE24610
:1023E000FD1636CCEDFE7D1739B7B71701400967EA
:1023F00023A8E780116723AAE780376700209307A7
:10240000C771DC4359719306C7713ECA52477D17A5
:102410003ACA6DFF3717014011662328C7803EC8AE
:1024200042477D173AC86DFF371701400966232AD6
:10243000C7801166232AC7803EC632477D173AC639
:102440006DFF3717014011662328C7803EC422471D
:102450007D173AC46DFF371701401166232AC780E4
:102460003EC212477D173AC26DFF37170140116611
:102470002328C7803EC002477D173AC06DFFB43E97
:102480003716014091656397061A37170140216698
:10249000232AC7C09166232AD7803EDA52577D1778
:1024A0003ADA6DFF3717014091662328D7803ED86E
:1024B00042577D173AD86DFF371701409166232A9E
:1024C000D7803ED632577D173AD66DFF3717014079
:1024D00091662328D7803ED422577D173AD46DFFCA
:1024E000371701409166232AD7803ED212577D17B5
:1024F0003AD26DFF3717014091662328D7803ED02E
:1025000002577D173AD06DFFB7150140FD4621688F
:10251000138605801163116E13771500938805C02B
:10252000630A071223A80801232AC6013EDE725758
:102530007D173ADE6DFF232866003EDC62577D176B
:102540003ADC6DFFFD160581E1FAB76600201386BF
:10255000C671382E303E05899386C671118F0546A7
:10256000630EC71037160140130606C0A16575C576
:102570000CCA371601409165232AB680BEC21646A2
:102580007D16B2C26DFE3716014091652328B680D4
:10259000BEC006467D16B2C06DFE7917B715014064
:1025A00011651386058045EF096718CA116758CA77
:1025B000BECA56477D17BACA6DFF3717014011666C
:1025C0002328C780BEC8C647FD17BEC8EDFFB71792
:1025D0000140116723AAE780DC42BED636577D173B
:1025E000BAD66DFF3717014091662328D780BED435
:1025F00026577D17BAD46DFF371701408966232A05
:10260000D7809166232AD780BED216577D17BAD2BB
:102610006DFF3717014091662328D780BED08657BB
:10262000FD17BED0EDFFB7170140216723A8E7C013
:1026300065618280232AB6803ECE72477D173ACEEE
:102640006DFF2328B6803ECC62477D173ACC6DFFE4
:10265000FD1615BD23AA0801C1BD4CCA19BF48CA41
:10266000BEC636467D16B2C66DFE23A8A580BEC482
:1026700026467D16B2C46DFE7D1725B7371701407B
:1026800089652328B7802166130707C01DC510CBB5
:10269000371701401166232AC780BECE76477D17C3
:1026A000BACE6DFF3717014011662328C780BECC14
:1026B000E647FD17BECCEDFF19BF50CBD1BFB767C2
:1026C00000209386C771B03E371801409387C771C9
:1026D000130786000607369794324E2B130708809F
:1026E00063840610896823281701916654CB14CBA4
:1026F00054CB14CB232A170154CB14CB54CB14CB7B
:1027000021672328E8C0371801401167C9E13E96C8
:10271000582E054337160140A165116893761500C0
:10272000631D6706B83F41070607BA97DA2BB7174C
:10273000014049CB938707C0C1C2A16694CBB717AC
:102740000140116623AAC78023A8C780A16623A8D9
:10275000D7C03716014091667D179307068025E3A1
:10276000096798CB1167D8CB98CB37170140916692
:10277000232AD7802328D7800966232AC780232AC3
:10278000D7802328D780A1672328F7C08280232AF7
:10279000E8802328E880FD1595BF930806C091CAFC
:1027A00023A8B800232A06812328068105817D17E6
:1027B000B5B723AAB800FDB7A166D4CB49B7D4CB2F
:1027C00094CB59BF096623A8C7802167938707C0A8
:1027D00091CA98CBB7170140116723AAE78023A8B5
:1027E000E78061B7D8CBFDB7896614CB916654CB2F
:1027F000D8431D71BAC08646FD16B6C0EDFEB716A9
:102800000140116823A80681BAC29646FD16B6C2D9
:10281000EDFEB7160140116823AA0681BAC4A64688
:10282000FD16B6C4EDFEB7160140116823A8068157
:10283000BAC6B646FD16B6C6EDFEB7160140096823
:1028400023AA0681116823AA0681BAC8C646FD16C6
:10285000B6C8EDFEB7160140116823A80681BACAB2
:10286000D646FD16B6CAEDFEB7160140116823AA7A
:102870000681BACCE646FD16B6CCEDFEB716014091
:10288000116823A80681BACEF646FD16B6CEEDFE37
:102890002168B716014023A806C191683718014086
:1028A000639405103E964C2E054E37180140A168E2
:1028B0001163137615006399C511B83F41070607E8
:1028C0003E97562B37170140638B0614130707C03A
:1028D00063050612216610CB371701401166232AC3
:1028E000C780D8433AD422567D1632D46DFE3716AF
:1028F000014091652328B6803AD632567D1632D6ED
:102900006DFEA165371601402328B6C00548B715EE
:1029100001401165138605806394060F896614CA09
:10292000916654CA3ACCE246FD1636CCEDFEB71697
:102930000140116623A8C6803ACE72477D173ACE71
:102940006DFF371701409166232AD780DC433EC0D4
:1029500002477D173AC06DFF371701409166232863
:10296000D7803EC212477D173AC26DFF371701402C
:102970008966232AD7809166232AD7803EC42247BE
:102980007D173AC46DFF3717014091662328D78021
:102990003EC6B247FD173EC6EDFFB717014021679F
:1029A00023A8E7C025618280232A18813ADCE256F9
:1029B000FD1636DCEDFE232818813ADEF256FD16B0
:1029C00036DEEDFEFD15E9BD930608C005C623A859
:1029D0001601232A68803AD8C256FD1636D8EDFE75
:1029E000232868803ADAD256FD1636DAEDFE0581E4
:1029F000FD15C1B523AA1601E9BF216650CBE9BD7B
:102A000048CA3AD002567D1632D06DFE23A8A58062
:102A10003AD212567D1632D26DFEFD16E5BD89659D
:102A20002328B780A166130707C005CA14CB916697
:102A300037170140232AD780D44336C842477D1731
:102A40003AC86DFF3717014011662328C78036CA80
:102A500052477D173ACA6DFFEDB554CBC9BFB76871
:102A600000201387C8711433B71701400348B7011A
:102A700093870780638F0624896694CB1167D8CB30
:102A800098CBD4CBD8CB98CBD8CB98CB9388C871E4
:102A9000B71601409167631E080C13571500B7174E
:102AA0000140058B938707C079CB216798CBB71777
:102AB0000140138307809166232AD300938707C0C0
:102AC00098472328D3003583137627001357250012
:102AD000058B4DCB216798CB1167B7170140232A8F
:102AE000E300938707C094472328E300135735007A
:102AF000B982058B858A51CB216798CB3717014066
:102B000093070780116323AA6700130707C01847BC
:102B100023A867003183118B518F558F8546630938
:102B2000D706896694CB23AA670023A86700B71647
:102B30000140116623AAC68023A8C680896523AAFE
:102B4000B68023AAC68023A8C680A16723A8F6C0A2
:102B50001375050819C123A4080083C7C800FD55D3
:102B6000371501409166FD176390B7161375F70F7F
:102B7000828023AAF68023A8F6807D1829BF2167CA
:102B8000D8CB35B72167D8CB81BF2167D8CBBDB7AC
:102B900093762500D1CAFD46371F01401163916E1F
:102BA00023AAD701130E0FC003268E00FD1623A8FB
:102BB000D70139827E063366060113581600EDF2FE
:102BC00003C6B80183C6A801918E05466383C60477
:102BD00023AA670003268E0023A86700371E014042
:102BE0003982058A9387E6FF116393060E8081EF91
:102BF00089679CCA9167DCCA9CCA95D97E063366F0
:102C0000060190C12DB723AA660023A86600FD1710
:102C1000E9BF896694CB23AA670003268E0023A808
:102C200067003982058AD1BF9041FD46B71E014039
:102C30002163116893751600138E0EC0B1CD232841
:102C40006E0023AA070123A80701FD160582FDF2E5
:102C500083C5B80183C6A8010548058A8D8EB715BE
:102C60000140938505C063820605A1670DCA9CC912
:102C7000B7170140116623AAC78023A8C780B715DC
:102C800001409387E6FF9386058081EF89679CCAA0
:102C90009167DCCA9CCA61BD232A6E005DB7DCC99E
:102CA000C1BFD0CA90CAFD17F9BF896694CBA1678E
:102CB00011CA9CC9B7170140916623AAD78023A8DF
:102CC000D780B5B5DCC9FDB7232AD5802328D580A8
:102CD00059BD896694CB9166D4CB5C4371713ECD6E
:102CE0006A477D173ACD6DFF37170140916623285B
:102CF000D7803ECF7A477D173ACF6DFF3717014017
:102D00008966232AD7809166232AD7803ED10A5725
:102D10007D173AD16DFF3717014091662328D78080
:102D20003ED31A577D173AD36DFF3717014091668E
:102D3000232AD7803ED52A577D173AD56DFF3717FE
:102D4000014091662328D7803ED73A577D173AD75E
:102D50006DFFB716014011666314081A93561500EB
:102D600037170140858A130707C0638B061AA166CF
:102D700014CB371701409166232AD780BEDC6657F3
:102D80007D17BADC6DFFB716014003A786C0116638
:102D900023A8C6803983058BBEDEF656FD16B6DE47
:102DA000EDFE9318170013572500B7160140058B49
:102DB000938606C063090716216798CA3717014032
:102DC0009166232AD7803EC18A46FD1636C1EDFEA4
:102DD00037160140032786C03983937617001167A1
:102DE0002328E6803EC31A467D1632C36DFE135774
:102DF000350037160140058B130606C0630807121D
:102E0000216718CA371701401166232AC7803EC5BB
:102E10002A467D1632C56DFE37160140032786C04F
:102E20001163232866803983058B3EC73A467D1699
:102E300032C76DFE0A0733671701558F8546630A4F
:102E4000D70EB7160140096623A8C680116623AACB
:102E5000C680BED8C656FD16B6D8EDFEB7160140E0
:102E6000116623A8C680BEDAD657FD17BEDAEDFF7D
:102E7000B7170140916623AAD780B76700209386D1
:102E8000C771D0429387C77132C8C246FD1636C893
:102E9000EDFEB7160140916523A8B68032CAD2462E
:102EA000FD1636CAEDFEB7160140896523AAB68025
:102EB000916523AAB68032CCE246FD1636CCEDFEF3
:102EC000B7160140916523A8B68032CEF246FD16B2
:102ED00036CEEDFEB7160140A16523A8B6C0137526
:102EE000050819C123A40700D4277D58B715014050
:102EF0001165FD166391062B1375F70F4D618280E6
:102F000023AAC6803EC94A477D173AC96DFF23A848
:102F1000C6803ECB5A477D173ACB6DFF7D182DBD3D
:102F2000A16654CBB9B52167D8CA49BD216758CA33
:102F3000D1BD9376250063860612371E0140FD48F9
:102F400013030E80916E116F232AE301BED4A6569F
:102F5000FD16B6D4EDFE03268EC02328D301BED6BF
:102F60003982058AB656FD16B6D6EDFE7E06336664
:102F70000601FD1813581600E39808FCB7660020F8
:102F80009386C671B02EB43E8548158EB7160140A3
:102F900093860680630F1609916823AA1601BED096
:102FA0008656FD16B6D0EDFEB718014083A688C040
:102FB000116323A86880B982858ABED29658FD180D
:102FC000C6D2E39D08FE791637130140116E9308AF
:102FD000038015EE096623A8C800116623AAC8005D
:102FE000BEC846467D16B2C86DFE371601409168D0
:102FF00023281681BECAD647FD17BECAEDFFE38956
:1030000005E61396F6013366060190C195B523AA2D
:10301000C801BECCE648FD18C6CCE39D08FE2328B7
:10302000C381BECEF648FD18C6CEE39D08FE7D16D0
:1030300079BF096690CA1166D0CABEC4A646FD16FD
:10304000B6C4EDFE37160140832686C0916823285A
:103050001681B982858ABEC6B647FD17BEC6EDFF8A
:1030600079BFB718014090412163FD45138808805E
:10307000916E116F93761600138E08C0CDC623286B
:103080006E00232AE801BEC08646FD16B6C0EDFEDE
:103090002328D801BEC29646FD16B6C2EDFEFD1528
:1030A0000582E9F9B76500209385C571B42DAC3D63
:1030B000058A8D8E8545638EB608B71501409385C8
:1030C00005C02DC6216690C9371601409165232A97
:1030D000B6803EDC62567D1632DC6DFE371601404E
:1030E00091652328B6803EDE72567D1632DE6DFE77
:1030F000F916B71501401168138605809DEA8966A7
:1031000014CA916654CA3ED4A256FD1636D4EDFEBA
:10311000B7160140116623A8C6803ED6B257FD17E8
:103120003ED6EDFFB1B3232A6E00A1BF2166D0C900
:1031300061BF232A06013ED842567D1632D86DFE65
:1031400023A805813EDA52567D1632DA6DFEFD1651
:1031500065B7B7160140096823A80681938606C0A3
:1031600005CA216690CAB7160140116623AAC68017
:103170003ED08256FD1636D0EDFEB71601401166E0
:1031800023A8C6803ED29257FD173ED2EDFFCDB1A7
:103190002166D0CAC9BF23AAA58032C4A247FD17A1
:1031A0003EC4EDFF23A8A58032C6B247FD173EC638
:1031B000EDFF81B3B7670020FD5E7D1503A80772A0
:1031C0000147814737160140896811636316D501AD
:1031D0008280232A1E0129A8411101E79C21214751
:1031E000850593F61700130E0680E5D623281E01E9
:1031F000232A668042C6B246FD1636C6EDFE232857
:10320000668042C4A246FD1636C4EDFE7D15858358
:103210007D17E314D5FD410182809377F5034111B9
:1032200099E3930700043768002013750508130815
:10323000C87131C937130140116E83284800A14578
:1032400001470DA8232AC38146C29246FD1636C205
:10325000EDFE832683802328C38146C0B582858AFC
:1032600002457D152AC06DFD05839E06FD15558F0F
:10327000FD1791C1E1FB05063357B700A30FE6FE2A
:10328000CDFF410182803717014003254800130715
:103290000780096891681163850503C6F5FF138EE1
:1032A00087FF937616009DC623280701232A67000F
:1032B0002AC6B246FD1636C6EDFE232817012AC4DB
:1032C000A246FD1636C4EDFEFD1705826307FE001B
:1032D000E9FB45BF232A0701D1BFDDFF5DB7376694
:1032E00000201307C67103481700B71701409376F3
:1032F000150093870780630A0830096798CB116827
:1033000023AA070123A807011306C67163840618C0
:1033100098CBB7160140916793860680DCCA9CCA99
:103320009357150013F7170063080716096798CA23
:103330001167D8CA1358250098CA33870701137834
:1033400018008967630D08149CCAB717014091667D
:1033500093870780D4CB94CB9356350013F816008F
:103360002A9763000814096823A80701116823AA93
:103370000701369723A80701058B63080712096721
:1033800098CBB7170140116723AAE78023A8E780ED
:10339000896623AAD78023AAE78023A8E78023A8E9
:1033A000D78023AAE78023A8E78003A74780B70632
:1033B00000FFB7180140758F23A2E78003A747805D
:1033C000B7064000558F23A2E780142E1167368878
:1033D00093870880631E080C916823AA170103A332
:1033E000870023A8170123AA1701984723A81701CC
:1033F00023AA170103AE8700318323A8170193582E
:10340000BE0093F84800098B336717019358D30027
:1034100093F81800336717018548631F17159378D1
:103420002500639B0808B71801401168938708803E
:10343000639C061003A84700B70800FF09633378B0
:10344000180123A2070103A84700B7083001336819
:10345000180123A207018C4113080002916813FE92
:10346000150063090E0E23A8670023AA170123A8DD
:1034700017017D18AE968581E31308FE858AF1CE8B
:10348000896694CBB7170140916623AAD78023A8F9
:10349000D78041A8D8CBB5BD0967D8CA51BDDCCA11
:1034A0006DB5096823AA0701D1B50967D8CBD1BD8D
:1034B000D8CB98CB7D1829BF814813030002116E29
:1034C000916E23AAD701944793D8180023A8D70157
:1034D000B582858A36987D13FE06B3E81601E3129D
:1034E00003FE23AAC701944723A8C70193D7D60098
:1034F000B347F800858B91C3214799C123A01501DB
:10350000142E3718014091659307088095EAD4433B
:10351000B70500FFED8ED4C3D443B7053001CD8E7F
:10352000D4C31375050819C12324060054268DEA57
:10353000B7170140896623A8D7801375F70F8280DB
:10354000CCCB8CCBFD16C9B723AA070123A8070152
:10355000FD16E9BD23AA670009BF8966D4CB1DB754
:10356000B7170140096693870780D0CB1166D0CB8F
:1035700090CBFD16EDFE6DBF9305E7FFF59995C560
:1035800011669305F0FDD0CB90CBFD16E39DB6FE02
:10359000D443370600FFF18ED4C3D443370630013D
:1035A000D18ED4C3896694CB49BF0C3E95ED3718B4
:1035B0000140116693070880A9E6D443370600FF4F
:1035C000F18ED4C3D44337063001D18ED4C3ADD1EC
:1035D000098939FD8966D4CB116693061002D0CBD8
:1035E00090CBFD16EDFEA9B71376250069D2130620
:1035F0001002116823AA070123A807017D167DFA8E
:103600007DB7D0CB90CBFD1675B7096690CB116610
:10361000D0CB5C4331713EC10A477D173AC16DFF83
:103620003717014011662328C7803EC31A477D170C
:103630003AC36DFF3717014013070780638F0630C9
:10364000896614CB371701409166232AD7803EC57F
:103650002A477D173AC56DFF371701409166232829
:10366000D7803EC73A477D173AC76DFF13571500FD
:10367000B716014013761700938606806302062E64
:10368000096690CAB7160140116623AAC6803EC9D2
:10369000CA46FD1636C9EDFEB7160140116623A8CD
:1036A000C6803ECBDA46FD1636CBEDFE935625009E
:1036B000369713F61600B71601409386068063040A
:1036C000062A096690CAB7160140116623AAC68069
:1036D0003ECDEA46FD1636CDEDFEB7160140116629
:1036E00023A8C6803ECFFA46FD1636CFEDFE135610
:1036F0003500B7160140137816002A979386068086
:1037000063060826096823A80601B7160140116858
:1037100023AA06813ED18A56FD1636D1EDFEB71694
:103720000140116823A806813ED39A56FD1636D370
:10373000EDFE3297B7160140058B93860680630B2A
:103740000722096798CA371701409166232AD78054
:103750003ED52A577D173AD56DFF37170140916640
:103760002328D7803ED73A577D173AD76DFF3717B2
:1037700001408966232AD7809166232AD7803ED9C3
:103780004A577D173AD96DFF3717014091662328B4
:10379000D7803EDB5A577D173ADB6DFF3717014064
:1037A00089662328D7809166232AD7803EDD6A5711
:1037B0007D173ADD6DFF3717014091662328D780CA
:1037C0003EDF7A577D173ADF6DFF371701408326BA
:1037D0004780370600FF37680020F18E2322D7800C
:1037E00083264780370640001163D18E2322D7807D
:1037F0001307C871102F1308C871B7160140B2889B
:1038000013870680639B0816916654CBBED006577B
:103810007D17BAD06DFFB716014003A786803583A8
:1038200013731700116723A8E680BED216577D17C1
:10383000BAD26DFF371701409166232AD780BED4D4
:1038400026577D17BAD46DFFB716014003A78680AF
:10385000116E23A8C6813583058BBED6B656FD16DC
:10386000B6D6EDFE93161700116E37170140232AC6
:10387000C781BED846577D17BAD86DFF371E0140A5
:1038800003278E80916E2328DE813583058BBEDA77
:10389000565E7D1EF2DAE31D0EFE0A07558F336772
:1038A000670085466312D72493762500FDE6B71896
:1038B00001401163938608806318061C83A84600A4
:1038C000370300FF096EB3F8680023A2160183A82E
:1038D000460037033001916EB3E8680023A2160159
:1038E0008C4113030002116F93F81500638E081AC0
:1038F00023A8C60123AAE6013EDCE258FD1846DCF7
:10390000E39D08FE23A8D6013EDEF258FD1846DEF0
:10391000E39D08FE7D132E968581E31703FCB71601
:103920000140058A9386068063030618096690CADB
:10393000B7160140116623AAC6803ED8C256FD16AE
:1039400036D8EDFEB7160140116623A8C6803EDAD0
:10395000D257FD173EDAEDFFFDA0896654CBDDB1ED
:103960000966D0CA05B30966D0CAB1BB096823AAE3
:10397000060161BB0967D8CAF9B3232A6700BEDC18
:1039800066577D17BADC6DFF23A86680BEDE7657CA
:103990007D17BADE6DFFFD18A5B53713014001464E
:1039A000930E000213030380116F916F232AF3011A
:1039B000BECCE646FD16B6CCEDFE8326830023285A
:1039C000E301BECEB582858A764E7D1EF2CEE31D22
:1039D0000EFEB6980582FE06FD1E558EE3980EFC7F
:1039E000B7160140116323AA6680BEC8C646FD16FD
:1039F000B6C8EDFE3713014083268380116E23285D
:103A0000C381B582858ABECAD647FD17BECAEDFFFF
:103A100093F718006383D700214791C190C1834673
:103A20008801832548003716014091689307068076
:103A300085EED443370600FFF18ED4C3D443370656
:103A40003001D18ED4C31375050819C12324080091
:103A50008346C800A5E2B7170140896623A8D7802E
:103A60001375F70F2961828023AA1701AEC4A647F8
:103A7000FD17BEC4EDFF23281681AEC6B647FD175D
:103A8000BEC6EDFFFD165DB723AA6600BEC0864622
:103A9000FD16B6C0EDFE23A86880BEC29646FD1690
:103AA000B6C2EDFE7D1639B523AAC601A1B50966D9
:103AB000D0CABDBDB7170140938707800966D0CB38
:103AC000832548001165116823AA07012ED42256C8
:103AD0007D1632D46DFE88CB2ED632567D1632D668
:103AE0006DFEFD16F5F285BF9306E7FFF59AB9CA9C
:103AF000B716014093860680116891681305F0FDA2
:103B000023AA16013EC4A245FD152EC4EDFD23A82F
:103B100006013EC6B245FD152EC6EDFD7D16E3112C
:103B2000A6FEB717014083A64780370600FFF18E37
:103B300023A2D78083A6478037063001D18E23A2E7
:103B4000D78021BF83489801639D0804B7150140C1
:103B500011689386058059E2D042B70500FF6D8E4B
:103B6000D0C2D042B70530014D8ED0C2E38508EEF9
:103B70000989E31205EE0966D0CA930510021165A2
:103B8000116823AA06013EC842467D1632C86DFE62
:103B900088CA3ECA52467D1632CA6DFEFD15F5F141
:103BA0005DBD93762500DDD2B716014013081002E3
:103BB000938606801163116E23AAC6013ED08255FA
:103BC000FD152ED0EDFD23A866003ED29255FD15C1
:103BD0002ED2EDFD7D18E31108FE8DBF23AA06014C
:103BE0003ECCE246FD1636CCEDFE23A805813ECE46
:103BF000F246FD1636CEEDFE7D16A1BF814713F7C6
:103C0000F70F6363C700828013973700B306F50090
:103C100033D7E50098A28507DDB7EFC2CFDBAA84D2
:103C20002E89130440068949CA852685EFF02FEBBB
:103C3000631635017D141374F40F7DF46FC0EFDC4F
:103C4000EFC20FDB41111146AE84AA8568007D37B3
:103C50006C001545D93785476306F50001454101DC
:103C60006FC04FDB2A84A68568001146413F6C0077
:103C700035456537E31485FE81453945793F7D1526
:103C800013351500E9BFEFC2AFD6A1474111AA8491
:103C90006319F500B767002083A7874E0545638742
:103CA000B702114668002E84913F6C0013F5C400E2
:103CB000AD3785476319F500A1476396F400B767F0
:103CC000002023A4874E7D151335150041016FC0D8
:103CD0006FD4EFC2EFD1AE84B70500FF9385050F17
:103CE00041112A84E98D2145793F09E501454101CA
:103CF0006FC04FD211E8B76700209387874ED84333
:103D00000545E30697FEC4C31146A6856800FD3548
:103D10001375C4006C001365150001378547E31760
:103D2000F5FC81453945D53D7D1513351500C1B7E5
:103D3000EFC20FCCAE84B70500232A8493852505F6
:103D40000145413F11C5A6852285DD3D3335A000E3
:103D50006FC04FCCEFC2CFC937F500E08325C5D087
:103D6000B707FA05910793F50570DD8D1305C5D0EA
:103D7000C1376FC02FCAEFC2AFC7EFC04FDF3737B1
:103D80000240A3000740C146A300D74023000740DC
:103D9000930690022300D740FD562305D740230108
:103DA0000740930630022301D740FD562328D74011
:103DB000232A0740232C074083470740014593E708
:103DC00007012300F7406FC0EFC409E5B737024091
:103DD000A3810740B76700209387C77788A701456D
:103DE00082801C21035825000C311396870113F79C
:103DF000F7076186B7670020931627009387C77778
:103E00006348060451463306C7024107B297054688
:103E1000239607152388C7142387B714B7370240A2
:103E200003A8074105463317E6003367070123A8B7
:103E3000E7409387B74DB6971307200298A3B7378B
:103E4000024093878749BE963E2101459EA282800B
:103E500051463306C702B29705462396070190AB39
:103E6000ECA7B737024003A8074105463317E60021
:103E70003367070123A8E7409387A74D6DBF01452E
:103E800082809377F507620561856345050281EBC2
:103E9000B73702400D47A38DE74C01458280373785
:103EA00002408A071307B74DBA9798231367370064
:103EB00098A3E5B799E7B73702400D47238DE74C44
:103EC000E9BF373702408A071307A74DF1BF937741
:103ED000F507620561858A073737024063490500A7
:103EE0001307B74DBA972380070001458280130757
:103EF000A74DBA97094798A3CDBF9376F50799E1E7
:103F00007D5539EAD147B387F6023767002013079A
:103F1000C7777955BA9703C80701630F080213F8EA
:103F200035007555631A0802CCCB90CF23AE07003D
:103F3000B1E205E6B7370240239C074CB767002083
:103F400083C7174F3737024093F7F70FB337F000A7
:103F50008E07230DF74C014582805E276373F600C0
:103F6000B287C20737370240C183231CF74C232E88
:103F7000B740E9B737350240139726001305854D42
:103F80003A95FD160DEA23100500B73702409387D6
:103F9000A74D3E971C23376500201305C576AA96CA
:103FA00013F6470E9C2293F7F70FB337F0008E07F6
:103FB000D18F1CA34DB7DE276373F600B287C2070B
:103FC000C1831EA1B737024093878745BA978CC338
:103FD0006DBF9377F50799E17D5539EA5147B3866F
:103FE000E702376700201307C7777955369783466E
:103FF00007159DCE93F6350075559DEA232AB71413
:10400000232CC714232E07148DE7373702401307DC
:104010000740A14719CA4CCFB767002083C7074F95
:1040200093F7F70FB337F0008E07A30DF70C014598
:10403000828037370240FD178A0793060742BE96F3
:104040001307F74D8CC2BA9798231377C70F98A31D
:10405000F9BF4111B737024022C626C44AC21384B1
:10406000074038241377F70F93762700638C0620D8
:104070002834383489463D8911830D8B631BD71250
:10408000376400201304C47741E11C4C5A24B76400
:104090000020544C9384144F6372F706998F1CCC04
:1040A0009C20369758CC93C717004C4C130500083A
:1040B0009CA0712E1C2493F7F70F91CB1824B737CF
:1040C00002401377F70FA381E740230404007A200E
:1040D000B73702409387074009C7030704006347C7
:1040E0000700C0CFA38D070C85479CA0B7370240BF
:1040F00009472385E740938707404DA2B6975CCCDC
:10410000232C0400854755B7131825001386A74DA7
:1041100042961822B76600201303F5FF1377470E67
:104120001367270018A251473307E5029386C67626
:104130003A940C4C5A248328C401637FB704BA987C
:10414000338E66004848232E140183480E003A95AA
:10415000998D93C818009387874D48C80CCC2300CD
:104160001E01C29763F3E5002E87420741839AA39D
:10417000B7370240938787453E982320A8001C222A
:104180009A9613F7470E9C2293F7F70FB337F00078
:104190008E07D98F1CA299BF9A969C22C6954CCCAB
:1041A00093C71700232C0400136505089CA245241F
:1041B00035BF0DFF39E90359C400B764002093846B
:1041C000C47783A5C41583A784154209135909012F
:1041D000B3872741CA9523ACF41423AEB414492CF9
:1041E000B76700209387074F631C090044CCA30DD9
:1041F000040C054798A3B7670020A388E74EFDB5D8
:1042000098231347170098A3D5B5383413770704BC
:10421000E30E07EC131825009386B74DC29698223B
:104220001377C70F1367270098A25147B305E5021C
:104230003767002052241307C777420641822E9722
:10424000832847158325C71503238715B298B29590
:104250003303C340232A1715232EB714232C6714C6
:104260000357C7146364E600631403001124BDBD43
:104270009387C7413E98232018019C2293F7C70FCC
:104280009CA2ADB59376070285C237650020130561
:10429000C577EF00D013930700023CA43244A24438
:1042A0001249410173002030058B6DDB4167050722
:1042B00018C8231C040C0947230DE40CB766002022
:1042C0000547A388E64EB76600202388E64EB7660A
:1042D00000209387C74D0147130620029386C676B8
:1042E000BD4523900700B0A3B0B33385E60023009B
:1042F000050005079107E316B7FE37650020130494
:10430000C5771306C02881451305C577EFB05FF167
:10431000252CB737024023AE8740A38D074C0547B5
:10432000C9BBEFB25FEBAA892E8901449384018552
:1043300083C7C4146364F4006FB03FED9307840433
:104340008A07A697DC476301090299CBD84709CBB6
:10435000834629009C2F6395F600CA854E850297F7
:1043600005041374F40FE9B7E5DFDC47F5DB81459D
:104370004E858297F5B7EFB2BFE73C2141115C84CF
:104380005C315821A207D98F93F7F77F7C853C31A8
:1043900037750000130585D48D8BDC84EF10C020A9
:1043A000348590840C8437750000130585D5EF1093
:1043B000A01F37750000130585D7EF10E01E2800F9
:1043C000EFF03FA21335150041016FB0BFE4EFB22B
:1043D0003FE2938701859847D0472E970D8E98C767
:1043E000D0C7BA8519E6D82B19CB238A0700014616
:1043F000814513050008EFF05FB06FB0BFE1FA230D
:104400006DDF83870700E3DA07FE0146814501453A
:10441000C936E5B7EFB2DFDD37750000130585D487
:10442000EF10801893850185FE21DA21B6219031A5
:104430008C2137750000130585CEEF10E016377517
:104440000000130585D7EF1020166FB0BFDC9377FF
:10445000F50731473387E70293870185BA9783A72A
:10446000871591C7EFB2DFD882976FB0BFDA82802D
:104470009377F50731473387E70293870185BA972A
:1044800083A7871B91C7EFB2BFD682976FB09FD823
:104490008280EFB2FFD5AA84138401851306002120
:1044A000814513850185EFB0BFD7930700F8230836
:1044B000F414B74700009387E73C232CF414B75754
:1044C0000000938747B804CC232CF41A6FB09FD414
:1044D00023A8A186828023AAA18682809387018552
:1044E00003C7C714930687048A0618ADBE9605074E
:1044F000C8C62386E714828018215041931687018D
:10450000E1869387018563DD06009376F707B14561
:10451000B386B602B6972388E71423ACC71482800B
:10452000B146B306D702B6972388E71A23ACC71A59
:10453000828003C581973335A0008280EFB25FCBC4
:10454000EFF07F836FB01FCDEFB29FCA41110145DD
:10455000EFF0BF87238C0196B707400093870708C9
:1045600028003EC4EFF0FF87280023040100EFF08D
:104570005F878145054575330545EF00902841016A
:104580006FB05FC9EFB2DFC3938401859C209306AF
:104590000002411113F707064E8A13840185630D4B
:1045A000D73C930600046305D7460149631E071AEA
:1045B0008D8B8546638ED71E8DCB09476386E73288
:1045C00037750000130585DFEF00107E377500009A
:1045D000130545E3EF10800E37750000130585D7EE
:1045E000EF00907C053D014941A21830A5472620E7
:1045F000E3E8E7FC9D6693172700938646CAB697C3
:104600009C4382871C44238007001C44A38007002E
:1046100089471CC8B5A385476399F4008D47254594
:104620006303F7002945EF00D01D2328040089AB60
:1046300013F5F40FEFF06FF9CDBF93D584008D47DC
:1046400013F7F50F93F4F40F6393F5049307E00E5B
:104650006399F40837750000130585D4EF00D07412
:1046600037750000130505D8EF10400537750000B9
:10467000130585D7EF0050735C4CB9D38C430844C5
:104680009021EF0050675C4C9C439C2359B7BD4779
:10469000639FF50237750000130585D4EF00D070D5
:1046A00037750000130545DAEF104001377500003B
:1046B000130585D7EF00506F5C50E38307F0D043BC
:1046C0008C430844EF0030635C50DC4399B7930798
:1046D000C7FF93F7F70F8546E3F4F6EE9D47E3E156
:1046E000E7EE1C4C814690231DE63775000013054C
:1046F00085DF2EC6EF00506BB24537750000268669
:104700001305C5EDEF00506A37750000130585D716
:10471000EF00906975B588336315E5006383D44471
:104720008506B297C9B7930784121CC48547D5B5CF
:104730008329840193F4F40F0149130AF00F930ABB
:10474000F00F114B954B094C83C7090095E3630E9D
:10475000090481451D4523049412EFF09FBC1D45BB
:10476000EF00300A232804004A8541016FB01FA9D9
:1047700083C71900638F670163807703639787019D
:1047800003CA590063934401054983C70900BE99D0
:1047900065BF83CA3900D5BFE39944FFE3970AFE9A
:1047A0004E85EFF05FBD2A89CDB72328040009BDEF
:1047B00003C78412E30607E09830994603D9240022
:1047C00003CA4400630BD70463EDE600E31A07DE77
:1047D0009C44238007009C44A380070089479CC811
:1047E00045A6A946630CD708AD47E31BF7DC044C8C
:1047F0001379F90F9309F00F930BF00F814A154CC1
:10480000B77C0000377D0000B77D000098203DEBAD
:10481000D6852145EFF0FFB009BD135989009307F4
:104820002002E31FF9D837750000130585D4EF0087
:10483000B05737750000130505DCEF003068377599
:104840000000130585D7EF0030560347C414938941
:1048500001858147E386E7D683A4C91299C8942CC1
:1048600063994601D0488C480844EF00D048DC48A2
:104870004DB3850793F7F70F9109E9BF98442300DB
:104880000700B1BF983091476307F700630F8701B6
:104890009820BA94A5BF83C9240083CB3400E319C0
:1048A0003AFFE31779FFA68AE5B7E3133AFF6309F6
:1048B0007903B03013858CD403CB24000D8A32C623
:1048C000EF00904E3246DA851305CDDDEF00D04D76
:1048D00013858DD7EF00504D5A85EFF04FDA4DBF5D
:1048E0002685EFF05FA96DB703478412E30A07CC72
:1048F0001830034944006307D70415CF8D47E311EF
:10490000F7CC3E20E39307EA37750000130585DFF7
:10491000EF00904937750000CA85130505E2EF00E6
:10492000B04837750000130585D7EF00F0474A857A
:10493000EFF02FD5DDB99844230007009844A30079
:10494000070071BDBE20E39207E63775000013052E
:1049500085DFEF00704537750000CA85130585E0D7
:10496000EF00904437750000130585D7EF00D04362
:104970004A85EFF0CFD529A48D8B0547639EE704C8
:104980000346C4144C20138701858147639DC700EB
:1049900037750000130585DFEF0010413775000003
:1049A0001305C5E405B98326C71295C203A80600FE
:1049B000630F0800942E639CB60013060401930550
:1049C0008400138501850298635C051AD1B78507B9
:1049D00093F7F70F11075DBF0947E39BE7FA03461B
:1049E000C414138701858147E384C7FA8326C7125D
:1049F00099CAD44289CA1306040193058400138519
:104A000001858296D1B7850793F7F70F1107E9BFA4
:104A1000DC4CE9C79830DC230149631FF712DE2024
:104A20001147377400006382E70415476381E70884
:104A300037750000130585DFEF001037377500006C
:104A4000130505E9EF00904737750000130585D77A
:104A5000EF00903537750000130585DFEF00D03487
:104A600037750000130545ECB5B637750000130522
:104A700085D4EF00703337750000130545E6EF006D
:104A8000F043130584D7EF003032DC4C8C47803183
:104A90009C21884422043E94BC21C2073E94BC3130
:104AA000E2073E942286EF00102580C8D1A8377512
:104AB0000000130585D4EF00302F37750000130573
:104AC00045E7EF00B03F130584D7EF00F02DDC4C35
:104AD000BA20DC470A07BA978C4355BF9C50A5CF34
:104AE0009830FC2301496319F706DA209D47E3114A
:104AF000F7F437750000130585D4EF00F02A3775F9
:104B00000000130585EAEF00703B377500001305C0
:104B100085D7EF0070299C508844D2238C43EF0046
:104B2000901D9C50DE2365B9930789048A07A297DC
:104B3000DC4789EB05091379F90F8347C414E36552
:104B4000F9FE09BF9C47FDD72686CE8513850185D2
:104B500082976DF135A00149930404019309840003
:104B6000E9BF89466305D7009D466316D700B03379
:104B7000B8232206598E084410C8BE85EF00B0172E
:104B80000549DDB6A1C5EFB2AFE6938701852E8753
:104B9000D0478C47198EBA958CC7D0C705E61387C6
:104BA000870298C7EFF01F9E19E513050008EFF084
:104BB0004FAD6FB02FE60146814513050008EFF0B9
:104BC000CFB3C5BF0145EFF0CFC0E5B78280EFB2EC
:104BD0002FE22146AA851385018593840185EF0084
:104BE0009011F220930700101384018563FDC70222
:104BF0008387040063C9070237750000130585DF4A
:104C0000EF00901A377500001305C5CCEF00102B8C
:104C100037750000130585D7EF001019130500083C
:104C2000EFF02FA605A0930584020CC450C410C851
:104C3000230A040011CA8307040063C70700014563
:104C4000EFF02FB96FB00FDDEFF0DF9361D91C48A3
:104C5000722063F3C7003E8650C49307001063F5CB
:104C6000C70237750000130585DFEF00F0133775B5
:104C700000001305C5CCEF00702437750000130544
:104C800085D7EF0070127DBF0C4413050008EFF0CC
:104C9000CFA61C487A20E3F7E7FA93F7F703DDF392
:104CA00085475CA845B737570000130747CC18C1A4
:104CB000232205002324050023260500828082800C
:104CC00082808280EFB22FD11C3113071002411174
:104CD0002E84034945006386E708AA84636BF702C4
:104CE000130700026382E70437750000130505F11E
:104CF000EF00900B8C3037750000130505F2EF00C4
:104D0000B00A37750000130585D7EF00F0097D550F
:104D100005A8130720026388E70213073002E39512
:104D2000E7FC4A85793F21A87C3170218C41A2079C
:104D30005D8E2800EF00207C2C004A85D1230145A0
:104D400041016FB08FCC20312C214A8522044D8C3B
:104D500093751400AD379355140085894A858D37B6
:104D6000F9BF2C004A85B289F92308401D462C0062
:104D7000EF0060789D4723A0F900D1B7FD5705C12A
:104D800099CD0547637DC7001307F6FF798E01EAC9
:104D9000232005002322050018C54CC581473E8508
:104DA00082801C415CC18280184148413305A74084
:104DB00082801C4558410841BA9785073385A74032
:104DC0008280EFB24FC1044540411C412A8926949C
:104DD00005041D8CAE89637386003284E58F8504DB
:104DE0009D8C63739400A2840325C9002686CE851A
:104DF0003E95EF0040700325C90033069440B3850B
:104E00009900EF00406F832709002285A297232095
:104E1000F9006FB08FBF58411C41998F63F3F500C3
:104E2000AE873E9758C13E85828058411C41411152
:104E3000998F3EC21C457D8F3AC42247998F8507C2
:104E40003EC63247924763FDE70092473EC6B247EF
:104E5000484589CBB2479CC1A2473E95410182801B
:104E6000B247EDB792473247998F9CC1C5BFEFB2A9
:104E70002FB855376FB00FBAB76700201387874F29
:104E80001A23B75500209386054E26073697102320
:104E90009D46376700209387874F9385054E1307FC
:104EA000274F631ED602B76600200546A383C64E71
:104EB000B76600201A2383D6464F158F42074183D9
:104EC000A146630FD702EFB2AFB29E2313060020B4
:104ED0000545A607BE95EFF0CF8F6FB0AFB3962311
:104EE00021468506C206C18296A396236314D60086
:104EF0002390070016238506C206C18216A34DBF64
:104F0000B76700200547238BE74E8280EFB24FAE94
:104F1000B7670020B764002003D7C74F9387E44FDB
:104F20009E23C207C183638EE70437640020130405
:104F300044501A201E20B7450020260793961700DC
:104F4000B7770020938787A0B69792239385054E65
:104F5000BA9513051008EFE05FFA1E2021479384ED
:104F6000E44F8507C207C1831EA01E206314F7000B
:104F7000231004009E208507C207C1839EA06FB046
:104F80006FA9B767002005472380E750CDBFEFB278
:104F90002FA6B77400202E86138544A4938501A6FE
:104FA0000D35138544A431359307F01F63FBA7002B
:104FB00013060020938501A60945EFF08F816FB09D
:104FC0006FA5B767002005472388E750CDBFEFB234
:104FD0002FA237750020130545A32E84493D9377F2
:104FE000F41F91EB09C80146814513052008EFE045
:104FF000DFF06FB02FA2B76700200547A388E75006
:10500000CDBF85476306F5009D476304F5028280A6
:10501000B767002023880750B7670020A388075090
:10502000B7670020A3870750B7670020A383075006
:105030008280EFB2EF9BB7550020B76700201306C0
:1050400000209385054E0545238B074EEFE07FF842
:1050500013060020938501A60945EFE09FF76FB086
:105060006F9BEFB2EF98B7250020377500200966D7
:105070009385054E130545A3EFF05FD0B7050020DB
:105080003775002009669385054E130545A4EFF09A
:10509000FFCEEFD02F89B7670020239C074EB7675C
:1050A0000020239D074EB76700202399074EB7675E
:1050B0000020239A074E376700208547230BF74EC1
:1050C000376700202311075037670020231207504D
:1050D00037670020231E074E1D6537670020231FFA
:1050E000074E13058501376700202300F750EFF0C6
:1050F0004FBA1385C180EFF00FBE13854183EFF0E7
:105100002FBD37750020130585A1EFF02FBD138546
:10511000C182EFF06FBE13854182EFF0EFBD3775AE
:105120000020130545A5EFF01FB8EFF02FBB377532
:105130000020130505A7EFF01FB7EFF02FBA138576
:10514000C181EFF06FBB13854181EFF0EFBAEFF053
:10515000EFBE6FB02F8CEFB22F87B7590020374AC0
:105160000020B76A00209389094E376B0020130A8C
:105170000A4E93872A4F376900209A239307494F95
:105180009E231309494F138C2A4FC207C18363948E
:10519000E7006FB0EF86376400209307A44F9E238B
:1051A0001304A44F9306E007C207C1839305F007D9
:1051B0002145139797004E971023630AD612B764C0
:1051C0000020938B24500A2083D50B009384245015
:1051D0002605A605D2954E95EFC09FEF03D70B008D
:1051E000B77B002093878BA00607BA978AA31E205F
:1051F0002147938B8BA08507C207C1831EA01E2069
:105200006314F70023100400835709003767002058
:105210001307674F8507C207C1832310F9001C23BA
:1052200093F7F70F9DC783570C0083560900958F9E
:10523000C207C183A146638ED700230007009307EE
:105240008B4F8E23130600200545A605CE95EFE073
:105250005FD89E2021478507C207C1839EA09E205C
:105260006314F70023900400B76700209387C74FAB
:105270009A230507420741839AA3376700209306C4
:10528000075090221376F60FE30506EE37670020ED
:1052900092239307E74F9E231307E74FC207C1836B
:1052A000E389C7ECB7670020938747508E232145D9
:1052B000C205C181138615004206418292A3922342
:1052C0006314C500239007001E23130510088507EB
:1052D000C207C1831EA393971500BE9B03D60B0084
:1052E000A605D29523800600EFE03FC159B50CA377
:1052F00085076393A700814713078B4F1A2355BD7A
:10530000EFA21FEFAE84376400201D469305845042
:105310002685C12219CD1D46A68513058450E12A94
:10532000B767002005472383E750B7670020A383B2
:1053300007506FA03FEEEFA2BFEB2E85B7650020B0
:105340001D4693858550452A6FA0DFECEFA2BFE88C
:10535000B767002093876750982337640020411176
:105360001377F70F1304745029C39304800873B0A4
:1053700004800F100000376500201305855023803E
:105380000700EFB0AFC3854737670020A308F75089
:105390003775002037670020A307F750130545A392
:1053A0001CA0EFF01FA073A004801C2093F7F70F40
:1053B000638007103704024013050403EFB02FE7A2
:1053C0009307F01FB774002063E8A7048145130515
:1053D0000403EFB04FE413050403EFB04FE51306E9
:1053E0000020B7650020098E9385C551138544A31D
:1053F000EFF03F9D9305002013050403EFB0EFE2AB
:1054000037550040A14513050580EFB0FFAF854536
:1054100013050403EFB02FE0138544A3EFF0DF98EA
:1054200015C5B76700209387175198231377F70F97
:1054300011CF6C00138544A323800700EFF0FF9E7B
:105440003246AA8513052008EFE03FAB37740020F1
:10545000130544A4EFF05F951DC16C00130544A42F
:10546000EFF0BF9C37590040AA8981441309098095
:10547000B24563E2B404130544A4EFF05F9FB76440
:105480000020938404519C2093F7F70F95C31305D4
:1054900044A4EFF01F929307F01F63FBA7001306CD
:1054A0000020938501A6094523800400EFE07FB228
:1054B00041016FA09FD5930500084A85EFB03FA436
:1054C0007DD9B38799008C234A858504EFB0BFA2AC
:1054D00045B701476314E60001458280B307E50044
:1054E0000507B386E5009C2383C6F6FFE384D7FE59
:1054F0003385D7408280B3C7A5008D8B3307C500A5
:1055000081E78D4763EDC700AA87637EE508942194
:1055100085078505A38FD7FEE3EBE7FE82809376B0
:105520003500AA8789CA942185078505A38FD7FEF0
:1055300093F63700C5BF9376C7FF138606FE63F068
:10554000C70683A3050083A2450083AF850003AF90
:10555000C50083AE050103AE450103A3850183A801
:10556000C5019385450223A0770003A8C5FF23A2A8
:10557000570023A4F70123A6E70123A8D70123AAF4
:10558000C70123AC670023AE17019387470223AE00
:1055900007FF75B790419107910523AEC7FEE3EB76
:1055A000D7FEE3E6E7F6828039713EDA2ED232D4B6
:1055B00036D63AD842DC46DE9387C18322CC80437C
:1055C00026CA06CEAA8409C41C4C99E322859123DD
:1055D0000C4454102686228536C6EF00B04EF240A9
:1055E0006244D24421618280011126CA4AC806CE93
:1055F00022CC4EC652C4AA842E8901C51C4D91E30B
:10560000092B9C4C804499E3268521239727000091
:10561000938787B0631BF402C0405E24A18BB1C79F
:105620001C48A1C7FD59294A1C4483450900FD17A0
:10563000B1E91CC463DD07062286A9452685C12879
:10564000FD576308F502294535A097270000938789
:10565000A7AE6314F4008044C9B79727000093876E
:10566000A7A9E31CF4FAC0444DBFA2852685B12A40
:1056700055D97D55F2406244D2444249B249224A4A
:10568000056182801CC4050963D70700184C63CAF2
:10569000E700638845011C401387170018C08CA3DE
:1056A00061B722862685A520E31035F9D9B71C40BD
:1056B0001387170018C0294798A371B79387C18330
:1056C000AA8588436FF05FF235713ECBB707008043
:1056D00093C7F7FF3ECE3EC8C1779387872032C578
:1056E00036C73AC942CD46CF3ECA9387C1832AC442
:1056F0002ACC884334012E862C0086DE36C2EF0089
:10570000300FA24723800700F6500D6182800111FF
:1057100022CC26CA4AC806CE4EC6AA842E89328416
:1057200001C51C4D91E3F526972700009387C79E7E
:105730006317F406C0401C4C1CC45E24A18BC1C37B
:105740001C48B5CF1C4808409379F90F1379F90F1D
:105750001D8D5C486346F500A2852685692C25E5EC
:105760001C440505FD171CC41C401387170018C0F6
:10577000238037015C486388A7005E24858B81CB3A
:10578000A9476316F900A2852685B5240DEDF240E0
:1057900062444A85D2444249B249056182809727D2
:1057A0000000938767996314F400804469B79727D2
:1057B000000093876794E310F4F8C044ADBFA2855E
:1057C0002685212041D17D59D9B741119387C183C5
:1057D00026C2844322C44AC006C62A892E8489C4AC
:1057E0009C4C99E326853526972700009387C7921E
:1057F000631BF402C0400317C40093170701C18361
:1058000093F68700ADEA93F6070195EEA5472320AE
:10581000F900136707045AA47D55B240224492440C
:10582000024941018280972700009387E790631423
:10583000F4008044C9B7972700009387E78BE31CE7
:10584000F4FAC0444DBF918B9DC34C5889C993074E
:1058500044046384F5004A85292B232A04025E242C
:105860002322040093F7B7FD5EA41C481CC05E24ED
:1058700093E787005EA41C4899EB5E241307002081
:1058800093F707286385E700A2854A8591295E245E
:1058900013F717001DC35C4823240400B307F0402E
:1058A0001CCC1C480145B5FB8317C40013F707083F
:1058B0002DD793E707045EA485B7898B014791E351
:1058C000584818C4F9BFDE25011122CC26CA06CEDD
:1058D0004AC84EC613F78700AA842E8479EBD841B4
:1058E000634DE000B841634AE0000145F240624484
:1058F000D2444249B2490561828058547DD703A9F8
:1059000004009396370123A0040063DB0606704869
:105910005E24918B99C75C401D8E5C5899C33C40B6
:105920001D8E5C540C50814626858297FD575A2463
:10593000631DF5009440F54763E8D706B70740209C
:105940008507B3D7D700858BA5C31C482322040045
:105950001CC09317370163D80700FD576314F50087
:105960009C4091E368C84C5823A02401BDDD9307F7
:1059700044046384F5002685ED2E232A0402B5B77E
:105980000C500146854626850297FD572A86E3116D
:10599000F5F89C40B5DF75476385E7005947639389
:1059A000E70423A0240191B7136707045AA47D5587
:1059B00035BF83A90501E38A09F203A905008D8B90
:1059C00023A0350133093941014791E3D84918C46F
:1059D000E35D20F11C540C50CA864E8626858297C2
:1059E0006347A0005E2493E707045EA4C9B7AA99A1
:1059F0003309A940F1BF9C49A5C3011122CC06CEB1
:105A00002A8411C51C4D81E72EC62122B245971765
:105A1000000093876770639CF5004C408397C50036
:105A20009DC722856244F24005616FF0DFE9971758
:105A30000000938767706394F5000C44C5B797170F
:105A400000009387676BE39BF5FC4C44C1BFF240B9
:105A5000624401450561828001458280411122C472
:105A600006C62A844EA572A5232005002322050020
:105A7000232405002322050623280500232A0500E8
:105A8000232C0500214681451305C505EFA04FF9DC
:105A9000971700009387C7E95CD09717000093879A
:105AA000E7EB1CD4971700009387C7EF5CD49717D8
:105AB0000000938727F200D01CD8B2402244410155
:105AC000828097050000938545F391AA411126C273
:105AD000130680069384F5FFB384C4024AC02E895E
