:040000006F20B016A7
:100004000000000000000000582200005A220000F6
:10001400000000006829000000000000000000004B
:1000240068290000682900000000000000000000AA
:10003400682900000000000068290000000000009A
:100044006829000068290000682900006829000068
:100054006829000068290000682900006829000058
:100064006829000068290000682900006829000048
:100074006829000068290000682900006829000038
:100084006829000068290000682900006829000028
:100094006829000068290000682900006829000018
:1000A4006829000068290000682900006829000008
:1000B40068290000682900006829000068290000F8
:1000C40068290000682900006829000068290000E8
:1000D40068290000682900006829000068290000D8
:1000E40068290000682900006829000068290000C8
:1000F40068290000682900006829000068290000B8
:100104000000000068290000682900006829000038
:100114006829000068290000682900006829000097
:100124006829000068290000682900006829000087
:100134006829000068290000682900006829000077
:100144006829000068290000682900006829000067
:1001540068290000EA6A0000682900006829000094
:100164006829000068290000682900006829000047
:100174006829000068290000682900006829000037
:100184006829000068290000682900006829000027
:100194006829000068290000682900006829000017
:1001A400000000000000000000000000000000004B
:0C01B4000000000000000000000000003F
:1001C000397101436EC619A0397141536AC866CAB4
:1001D00062CC5ECE19A0397101535AD056D252D496
:1001E0004ED64AD826DA22DC06DE3301614082820E
:1001F00041114AC026C222C406C68282B24D4101C4
:10020000024D924C224CB24B4101024B924A224A7F
:10021000B2494101024992442244B24041018280E4
:100220003D432A876373C3029377F700BDEFADE5C3
:10023000937606FF3D8ABA960CC34CC30CC74CC7D5
:100240004107E36BD7FE11E28280B306C3408A0602
:100250009702000096966780A6002307B700A306C2
:10026000B7002306B700A305B7002305B700A30412
:10027000B7002304B700A303B7002303B700A3020A
:10028000B7002302B700A301B7002301B700A30002
:10029000B7002300B700828093F5F50F9396850091
:1002A000D58D93960501D58D61B79396270097025A
:1002B000000096968682E78086FA9680C1171D8F89
:1002C0003E96E374C3F8A5B7B707002013878708E5
:1002D000854614A39387870819E1238007008823A4
:1002E0008280EFF2FFF0370400209307840805476F
:1002F00098A31304840801C591471CA019A8EF1006
:10030000103B37A5000013050511EF80A045230021
:100310000400082001B709EDEFF29FEDB206328527
:100320001396060141823205EF1050500145DDB5AC
:100330001145828015E5EFF2BFEB9314C600411121
:10034000268536842EC6EF10306C3204B245131663
:10035000040126854182EF10305D014541015DBDFC
:100360001145828019E98547638FF50081C90947E6
:100370006387E5000D476385E50011458280856749
:100380001CC20145828093070020DDBF01458280A9
:100390003C313821A207D98F1831A2070821D98F03
:1003A000A2075D8D828093D785000CA11CB193D7E5
:1003B0000501E1813CA12CB182805849F9157917DA
:1003C00063F8E5003E250855B387B7023E95828065
:1003D000014582801C4185CBBE8693050002130631
:1003E000A00385060387F6FF1378F70F63FB050369
:1003F000E319C7FE038607002547130606FD93751C
:10040000F60F6374B700FD5719A813872700FD572F
:100410006397E6000947B287E347C7FE14C13E85EC
:1004200082808147EDBF11E9814725459CC18280CB
:10043000254581479CC14101F1BBEFF27FDB1C41A7
:1004400041112A84F5D7982365D75621FA23E391E1
:10045000E6FE88332EC68D3D0589B24571F91C40F4
:10046000D1BFBC3DB82DA207D98F0D476318E50059
:10047000D839D4292207558F4207D98F3E858280EB
:1004800093170601C183A183BCBDB0AD18218D4770
:100490006316F7004182D0A92182D0B98280EFF2A1
:1004A0003FD5404D411101478147130500021548D2
:1004B000A1481303E0022D46B306E400838606003C
:1004C0006381A60263930601955663171701338E65
:1004D000F500A3046E008507338EF500A304DE004B
:1004E00085070507E31AC7FCAE97A38407003C34D1
:1004F0001305C4012EC693F7F7039CA5513DB245E1
:1005000088C17C387828A207D98FFEA11C3C182C02
:10051000A207D98FDEA14101F5B93C3181E78147BE
:100520003E858280EFF2DFCC9304050350552A8488
:1005300008318546A685FD3B854705E550541C508E
:10054000184CA3010400B307F64063FBE700342016
:1005500089476397F600083085463A96A685D93BC9
:1005600081473E8545B9EFF2BFC85C5501446382BF
:10057000B702AA842E8955372A8401ED8830854632
:100580004A8693850403413B19C105447D5923A63E
:100590002403228541B1EFF2BFC5FD575CD5A3010D
:1005A00005002A84C937914761E98344F4228347CF
:1005B000E4221307B00EA204DD8C83470403638892
:1005C000E700E10793F7F70F05476360F70AAD67A8
:1005D000938757A5639DF400B7A500002146938536
:1005E000C51213052408EF90501E814751C583475B
:1005F000C4030347B403A207D98FC207C1870567A5
:100600006395E7060347D4032DC39307F7FFF98FDC
:10061000A9EF8347F4030347E403A207D98FB1C7C7
:10062000834704040547FD176361F70483472404E7
:1006300003471404A207D98F8DCB83474404034793
:100640003404A207D98F1307F0076368F700130576
:1006500004053D3BC167636AF500034774048347A3
:10066000640422075D8F814701EB2D67130757A5AF
:1006700089476383E4008D473E8569BEEFF2BFB5CD
:10068000054A89496371BA0A5C492A89894963FC28
:10069000F5081C210947B2842E846381E70A0D47BF
:1006A0006384E70C6391470913DA15001C512E9AF5
:1006B0009355CA00BE95453DAA8935E58566938761
:1006C000F6FF130B0903930A1A000588337AFA0020
:1006D0005A9A93F7F40F01CC83470A00C11613F717
:1006E000F70093974400F58FD98F93F7F70F230006
:1006F000FA008547A301F9008327090293D5CA00B0
:100700004A85BE958D35AA8919ED93974A01D18303
:100710003E9B01CC13D644001376F60F2300CB008A
:100720008547A301F9004E85CDB403460B009377AE
:1007300006FF13D684003D8A5D8ECDB71C51AD8176
:10074000BE951535AA8965F185650604F9151396D8
:100750000401930709036D8C41823E94218204A019
:1007600010B0A3014901C1B71C51A981BE95E53B59
:10077000AA8955F98565F1150A04930709036D8C5B
:100780003E94228531319204B70500F09180E98DC5
:10079000C58D22850939F1B7854763F0B70CEFF2B3
:1007A0009FA358492A8463F6E50218218946AE843E
:1007B0006303D7068D466301D708631CF70093D9FE
:1007C00015001C51AE9993D5C900BE95693B01C572
:1007D000FD573E851DBC85671389F7FF1C50138AA2
:1007E00019009355CA00B3F92901A299BE95228533
:1007F00083C909038D3B69FD337A2A01529403476B
:1008000004038588220733673701B3772701F1D0C6
:10081000935747007DBF1C51AD81BE95A9334DF95B
:1008200085658604F91513040403ED8C26941C30A9
:100830001820A207D98F71BF1C51A981BE952533FD
:1008400041F905658A04711513040403658D229529
:100850008136931745009183ADBF85473E858280E1
:10086000EFF27F972A8AAE89044191E903A9C40077
:1008700063050900DC486364F90205490DA026857B
:10088000213F85472A8463E5A70005442285B5BA40
:10089000FD576305F50ADC48E36AF5FE4E899C487E
:1008A00099E30144E5B7631A3903DC4813041900DE
:1008B0006363F400094403250A00A285F13D05475E
:1008C000E305E5FCFD57630BF50615CDDC446376C7
:1008D000F700D84863F3E7003E894A84854A7D5B88
:1008E000DC4805046365F400E3FD2AFB09440325A5
:1008F0000A00A285553509C9E30955F96300650564
:10090000E31024FF79BF71D87D56A2852685BD33BB
:100910001DE1639D0900D8489C48C0C479176371E4
:10092000F702DC2093E71700DCA08DB72286CE8586
:100930002685A9336DD18547E319F5F47D54B9B700
:10094000FD179CC8F9BFEFF21F898547AE840041AF
:1009500063F1B7065C4863FEF504AA89B28519EA1B
:10096000054AFD5A03A50900A6853D352A8909E9EE
:10097000014529A07D56228511337DD16FF0FF8876
:1009800063094503630955030146A6852285FD31A8
:1009900075F558481C489306E7FF63F8D7008507AC
:1009A0001CC85C2093E717005CA0CA84E36CE9FADA
:1009B000C1B70945E1B70545D1B7EFF2DF81411174
:1009C0002A842EC6993E29E1B245228513090403E3
:1009D000ED3248D4AA89056681454A85EFF05F84E7
:1009E00081443E2463E9F4002A24058D3335A000B8
:1009F00041016FF09F810830854633869900CA8592
:100A0000153A7DF18504F1BF0545DDB7EFF2AFFC86
:100A100083290501B70720002A849389090204412C
:100A200063E4F900232C05001C4C114585C7139A7B
:100A30004901135A4A01AE8A631F0A064C488507CA
:100A40001CCC99E99A2493D7590063E6E706232C36
:100A5000040011456FF06FFBBE2413D7C900FD17CA
:100A6000F98FB1EB26850D3B054B2A896364AB00FA
:100A70000945CDB7FD576314F5000545E1BFDC48D6
:100A80006364F502E3850AFC4C482285D13B2A8940
:100A90001D45E30109FCE30D69FDFD57E30FF9FC7A
:100AA000CA852685193F71F9232A2401CA8526851E
:100AB000EFF0BF9008CC93840403D2942328340130
:100AC00044CC014541BFEFF2AFF22A84B93459E971
:100AD00018208D476311F70858208547631DF706D6
:100AE00093040403056681452685EFF06FF39307B1
:100AF00050052307F4229307A0FAA307F4220C4819
:100B00009307200513071004930620072308F40217
:100B1000A308F402930710062309F402A309E402D0
:100B2000230AD420A30AD420230BE420A30BF4200F
:100B300013058421EFF03F874C441305C421EFF0E7
:100B40009F86504C08308546050650D4A685EFF0A8
:100B50006FFE23020400083001468145EFF09F80BC
:100B60003335A0006FF00FEBEFF2EFE6011123A099
:100B7000050032892EC6EFF0FF85AD47634E0502B2
:100B8000376700209317250013070752BA97804351
:100B9000AA84B14715C0B2451379E90F80C11C2062
:100BA00085C30830EFF04FF29377150091EB6305A2
:100BB0000900118911C1A9473E8505616FF0EFE475
:100BC00013F5F40F2300040008B0EFF08FF1137752
:100BD00015008D4775F363040900118969FD81458E
:100BE0002285553A89476314F50404081309641FE4
:100BF000130A6423A6894A85EFF08FF923A0A90080
:100C000041099109E3192AFF1389040185498C40A0
:100C10000D4591C52285EFF01F9863F2A90291045A
:100C2000E31799FE114785476319E50071B711472E
:100C30008547E303E5F863F4A700B547B5BF8347ED
:100C4000C4030347B403A207D98FC207C18705674E
:100C5000E395E7FE8349740483476404A209B3E97A
:100C6000F9006397090013054405EFF06FF2AA89B4
:100C700083440404232C340105479387F4FF24A004
:100C800093F7F70F032AC402E369F7FA0349D40381
:100C900093170901C1833EA4CDD39307F9FFB3F79E
:100CA0002701C1FF83472404834A1404A207B3E742
:100CB0005701939A070193DA0A41139B0A01135BC8
:100CC0000B01231464019377FB07A5FB0345440440
:100CD0008347340422055D8D09E513050405EFF013
:100CE0002FEB8347F4030347E403A207D98FB1D75F
:100CF000B386340313577B003E973697E36FE5F2D4
:100D0000198DB3542503E36A25F3370600105516F1
:100D1000E36596F241665516637A96100D4952972F
:100D20008904D29718D444C8232E44011CD00D47FF
:100D3000631FE90C8347B4050347A405A207D98FB5
:100D4000B3E7FA00C207C187E39907EE1305C405AC
:100D5000EFF00FE448D08A048567FD17BE94B18098
:100D6000E3ED99ECFD571CC85CC4930700F85CA048
:100D70008D476310F9088347140603470406A2074A
:100D8000D98FC207C18705476395E70693051A0007
:100D90002285EFF04FFD31ED8347F4220347E42233
:100DA00023020400A207D98FC2076D77C1871307FA
:100DB00057A56390E70413050403EFF06FDDB75701
:100DC0006141938727256316F50213054421EFF04F
:100DD0002FDCB777416193872727631CF500130544
:100DE0008421EFF0EFDA08C81305C421EFF04FDAE1
:100DF00048C4376700201307074E1E232300240131
:100E00008507C207C1831EA37EA0814775B3E30691
:100E10000BE2B6975CD089476314F90086042DBFB6
:100E20003387E40285880583BA943DB7056955196F
:100E3000333999000509E5B5EFF2EFB92A84044189
:100E40001309500E11459309E0023D4AA14A0C4C8A
:100E500099E11DC52DA82685EFF0EFF00DE95C4C5A
:100E600098230DCBBC3793F7F7037CA0630D2701C4
:100E7000630B37016389470193F7F7FD63855701DA
:100E800001456FF08FB881452285493669D1232C01
:100E90000400C5BF1145E5BFEFF2EFB3032985009C
:100EA00023280500AA8400416319090218208947F4
:100EB00063F4E7005C508DE31E2481E709456FF081
:100EC000CFB45C509CCC9C4C23AA2401E5DB1304DA
:100ED0000403C0CC0145E5B73E893E24FD59054ACF
:100EE00091EF8840CA85EFF03F8B2A89630E350168
:100EF000E376AAFC5C48E366F5FEC9B7CA8522859D
:100F0000EFF0AFCB88CCC1B7054555BFEFF2AFAC22
:100F1000AA840329050049372A8439E99309500E28
:100F20008C4C4A85EFF02FE42A8439E1DC4C9C2379
:100F3000639A37038C4C4A85EFF0EFE22A8405E18F
:100F4000C84C130600028145EFF08FADC84C2D460A
:100F500093850402EF90A0098547A301F90022853B
:100F60006FF0AFAAE1DB854526854D342A844DD943
:100F70009147E316F4FE1D44DDB7EFF26FA4832B17
:100F80000500AA84AE899306F0021307C005838783
:100F90000900638BD70E6389E70E23A4040003C7FF
:100FA0000900FD4763F4E70E056B938A0402130CF6
:100FB000F002B7AC0000138D0B037D1B2D4693058B
:100FC00000025685EFF0CFA501498147A14D1306D8
:100FD00000021308C0059308E0022D43130E000819
:100FE0009306F00F130FF003930FE0073387F90018
:100FF0000023138A1700637086026304840163135D
:10100000040B1307C005B387490183870700638971
:1010100087096387E708D299630A091403C70402A2
:101020009307500E6315F70095472380F4021307CA
:101030000002914763778700838609006353D700D6
:101040008147A385F402268503A90400B1352A84CB
:101050006315050E8C4C4A85EFF0EFD02A8471EDB4
:10106000C84C1C21F1CB3C3593F7F703FCA03C3571
:10107000A18B91E72D46D685EF8030755DCD8145FA
:101080002685EFF0BF98E1B7850911B7930700F8FF
:10109000A385F402268509352A8422856FF00F96F0
:1010A000050A95B76306140D6372B90D63728E0459
:1010B00033874901630DD406138A2700830707008D
:1010C00013F7F70F6374EF0A63F6EF0063D0070AB4
:1010D000630ED7089387FDFF637AF9089307190019
:1010E000B3852A0180A1D697090998A3D287FDBDAF
:1010F000A2851385CC19EF80B07A2DE99307F4F916
:1011000093F7F70FE54E130600021308C005930886
:10111000E0022D43130E00089306F00F130FF003A7
:10112000930FE00763E5FE0001141374F40FB38717
:101130002A0180A305095DBF114483C7B40201C819
:101140001147E31CE4F4918BA9FB1544B9B7918BCB
:10115000A9F7FC20C18BF5DB8C4803C50B00B3F568
:101160006501EA95EFF0EFAF88C489BD194435B742
:10117000E38E6DFE2149AD4D95BFEFF26F870111F2
:101180002AC668082EC432C22ECEEFF0AFA4634F39
:101190000502B7670020138707520A052A971843EC
:1011A00093870752124619C323000700324719C319
:1011B00023000700AA9798C3014511C601466C0099
:1011C0002800EFF07F9A05616FF0CF842D45E5BFD1
:1011D000EFF26F8039712EC62544630B05129379A7
:1011E000F6033289AA844E860C086800EFF0DF9778
:1011F0002A844DE9C247B24548083ECABD3B2A840D
:1012000011E58307F10363D3070019449377C901FC
:101210006384071059C891476316F4084808FD31E4
:101220002A8449E193E98900EFF04F962A84AA8540
:1012300042553905EFF02F974255A2855905EFF039
:101240008F964244425A0820D285EFF08FA193072F
:101250000002A305FA00C2552A8901462285EFF053
:101260002FA2C2570547238E0700A38E0700238FA6
:101270000700A38F0700C247B8B363030904014600
:10128000CA85480803AAC702EFF0EFEB2A8419E9E0
:101290004245D2857D19EFF00FADC2472A8423A6BF
:1012A000270119CD23A00400A5A08347A101C58B68
:1012B000C1E393774900E9E713798900E31609F65A
:1012C00093F7890099C393E90904424442595C5455
:1012D00023A22403CA859CD00820EFF08F9888C4ED
:1012E0002AC41305C901EFF0AF8A7E20C8C4238841
:1012F000340180C0DEA0A388040023AE040023AA2A
:10130000040093F909022A89A24563950902014460
:10131000228521616FE07FEF51F48347A10113F72C
:1013200007012DE313792900E30C09F8858BC9DB4C
:101330001D448DBF69DD2224C8C8854932047D5A09
:101340006362240301448CCC31FC93174901E1D33F
:101350004245EFF08F860DC91359C9002A9923AE73
:1013600024017DB7884033098940EFF0EFC2AA8598
:1013700063F6A900E31645FD0544F1B70944E1B75A
:1013800021440DB7114439BF094429BFEFE25FE39F
:101390000111AE8A23A006006C082A8432C6368B5F
:1013A000EFF06F882A8A31ED034A1401631B0A04A7
:1013B0001C28858B638C07100329C4005C483246C7
:1013C0003309F940637326013289856B138CFBFF67
:1013D000854C7D5D630709025C4833F787014DEF5B
:1013E00072478359A70013D7C700FD19B3F9E90065
:1013F0006399090299EB084463EEAC0089471CB875
:10140000094A528505616FE07FDF0C4C0840EFF020
:10141000AFB8DDB76316A50185471CB8054AD5B737
:1014200008CCF2470C4C3E853EC6EFE01FF979D55B
:10143000B38DA90063607907B2479354C900B3869E
:101440009900BA276374D700B30437418833A6865E
:101450006E86D685EFE03FEC61F1F245BC3191CF6D
:10146000C855B30DB54163FA9D00B20D056693856D
:1014700005033385BA01EF809037B20483270B0050
:1014800033099940A69AA6972320FB005C48BE9496
:1014900044C889B7232EB4015C48CA84B3F78701D6
:1014A000B387FB4063F32701BE844C4C7245EFF0D9
:1014B0008F8B3DF1F2455C48268693850503B3F793
:1014C0008701BE955685EF8090324DBF1D4A15BFEE
:1014D000EFE21FCF01112E8A23A006006C082A8498
:1014E0003289B68AEFE03FF4AA891DED83491401E1
:1014F000639C09021C28898B638107165C4833872B
:1015000027016374F70013C9F7FF056B930BFBFF0B
:10151000854C7D5D75A80C4C2285EFF06FB469EDAC
:101520001C2893E707041CA84E8505616FE01FCDBA
:101530006316A50185471CB88549FDB71C4408CC36
:1015400091E308C472455C4C58556315F700EFE011
:10155000DFFC6DF172470C4C3A853AC6EFE0FFE5CF
:1015600051CD338CAD003247636E690936279354F1
:10157000C90033869D0063F4C600B384B6410833C6
:10158000A6866286D285EFE0FFDA4DF5F24D83A59F
:10159000CD02B387854163FC9700B2070566B305AA
:1015A000FA0013850D03EF809024A3810D00B2048F
:1015B00083A70A0033099940269AA69723A0FA0028
:1015C0005C48BE945C4444C863F39700A6875CC43F
:1015D000E30809F45C4833F7770131E37247835D30
:1015E000A70013D7C700FD1DB3FDED00E39C0DF46C
:1015F0009DF3084481450DD1E31C95F389471CB840
:1016000089491DB7504854446369D6003A85EFE0D4
:10161000DFF00DF1724723268703232E84015C48F7
:10162000CA84B3F77701B307FB4063F32701BE8495
:101630004C4C7245EFE03FF3E31E05EE72455C480B
:10164000268613050503B3F777013E95D285EF8013
:10165000101AF2470547B8B3A1BF9D49F1B5EFE2B3
:101660003FB941116C002A84EFE0FFDB31ED1C280B
:1016700093F70704B1CBEFE07FD12A890C503245B4
:10168000EFE07FEE31E14450BC34A68593E70702DA
:10169000BCB410440840EFE0BFDE4C441385C401E5
:1016A000EFE07FD0CA8513856401EFE0DFCF3245DC
:1016B000854723890400A38904003CB1EFF0AFC043
:1016C0001C2893F7F7FB1CA841016FE0BFB4EFE2C1
:1016D0003FB241112A84613701E96C002285EFE0B5
:1016E0009FD419E12320040041016FE0BFB2EFE273
:1016F0003FB001112EC629CD2A8401466C0868002E
:10170000EFF08FC605E1F247B24522851CC0EFF02D
:10171000DF8629E18307B40263CF07007C20C18BF9
:1017200089E71545232004000DA0F2474C4C88237F
:10173000EFE03FD308C4F2472285FE235EA0EFF01E
:10174000AFF59147E30FF5FC71FD05616FE09FACCC
:101750002545E5BF9147E306F5FCE9B7EFE25FA950
:1017600041116C002A84EFE01FCC19E12320040012
:1017700041016FE03FAAEFE2BFA74111AE846C00C8
:101780002A84EFE05FCA09E5228591E4EFF0CFF00B
:1017900041016FE03FA8EFF02FEA9377B5FFEDFB33
:1017A000A38404001C4C89C7A6852285EFE03FCFA7
:1017B00081452285EFF08FA59147E31BF5FC01459C
:1017C000C1BFEFE2FF9F39712ACE6808368D2E84A3
:1017D000B28CEFE03FC0AD466346050EB766002011
:1017E00013172500938606523697184319C3230012
:1017F00007001379F50F01E42964130484154A8561
:10180000EFE03FAE137715008D464DEF1189A946E5
:1018100055E958403AD609EB70108D454A85EFE0FE
:101820007FB419C105473AD6325721669306F7FFB0
:1018300063F4C600758F19C305473AD6834B14006D
:1018400085461387FBFF1377F70F63F3E600854B9D
:10185000832D840021679386FDFF63F5E60013F76F
:10186000FD0719C3930D0020444437070001636F3F
:1018700097041387F4FF658F31EB0567C5466363F3
:10188000ED0463810C04101885454A85002002D8B8
:10189000EFE05FAD85461DE5937784003ECA014BBE
:1018A00081EF42579306F0033E8B63F7E600130780
:1018B00017FC3AD8130BF003C2561307F0076369FD
:1018C000D700B946368521616FE05F93814475B7D3
:1018D000B71608001307000863F4D40013D7C40038
:1018E000937524000588F1C51334140009042ECC27
:1018F0003AC8EFE0BFA92AC60D46C2564247E245A4
:101900006313C4103A8509EF296693D816011306AC
:10191000861405470A2201C5090663F0A80A014595
:1019200033D6E6028568FD18130426000A0446949F
:10193000C178A9084696B708FF0F3180E37316F9FE
:10194000BA84014C2A87930800028D493305740339
:101950003253330A1B011306F3FF330360405295E1
:1019600062952A96337666000D43098E6393690665
:10197000B298329A13964400330666413295E3E2F8
:10198000A6F433067403B38A8641B38A1A41B38A34
:10199000CA400D46B3DA9A026398C90441665516E7
:1019A0006365560D19FF0547E37D97F013D71400C3
:1019B00091BFCD4601D809441DBF0607A1BF8604CB
:1019C00099A80D463304C4028549050405800D0419
:1019D0008DA033737603630503007D168508050A21
:1019E00033567603329479B70946639BC90641663C
:1019F0005516637A56056311074A139714001306A8
:101A00000004636EE648BA8401EF296693D8C600E5
:101A10001306861385440A2201C50906E3F1A8FAD4
:101A200033D4960205665516E37D86F8090406044C
:101A3000894905667D163294139C5D003180135CE4
:101A4000CC00854821B70566551663605603E31A36
:101A500007E61397140013060008E376E6FA95B537
:101A600005675517E36F57E5854905668145668526
:101A700036CC46C8EFE0CFFAB7A500002D469385D7
:101A800085166685EF80A056C24841472386EC0044
:101A900023871C01C20893D8080193D88800A38526
:101AA0000C00A3869C00A3871C0123887C010D47A2
:101AB000E2466393E900814D13980D011358080124
:101AC00013588800A388BC0123890C01416763F285
:101AD000E60C1397060141832183A389DC00238A46
:101AE000EC006157B247A38AEC001307F003238C84
:101AF000EC007D57238DEC00DA85A38C0C00A38DC0
:101B00000C001385CC01B38DD700EFE0DF890D47C2
:101B1000EE856398E90813853C04EFE0DF88A28531
:101B200013854C02EFE03F8809472386EC02054706
:101B30002388EC0219472389EC02130700F823805D
:101B4000EC04B7A5000013079002A3860C022387BC
:101B50000C02A3870C02A3880C02A3890C02238128
:101B6000EC044D469385451713857C04EF8020488F
:101B7000930D50059307A0FA238FBC1FA38FFC1E63
:101B800085465A86E6854A85EFE0CFFA39C585460F
:101B900015BBB68513850C0236C8EFE0DF80C24660
:101BA00089B713857C02EFE01F801317040141837E
:101BB0002183A38BEC00130700F82382EC02B7A566
:101BC000000013079002238B8C002383EC024D4608
:101BD000938585181385BC0251BF0D476399E908A9
:101BE000854613066B00E6854A85EFE0AFF405668F
:101BF00081456685EFE0CFE21307200593061004C8
:101C0000130620072380EC00A380EC0013071006C6
:101C10002381EC00A381DC002382CC1EA382CC1E96
:101C20002383DC1EA383EC1E9385FAFF13858C1E91
:101C3000EFE06FF709479307A0FA854613067B008C
:101C4000E6852386EC1EA3860C1E23870C1EA38725
:101C50000C1E238FBC1FA38FFC1E4A85EFE08FED67
:101C6000854613061B00E6854A85EFE0AFEC7D76DE
:101C70003376CD0081456685EFE08FDAE157054781
:101C80003EC8935ACD006397E900370B00019307D4
:101C90008BFF3EC802C6FD5D8D476396F91AE1577A
:101CA0002380FC00BD47A380BC012381BC01A3812C
:101CB000BC012382BC01A382BC012383BC01A3839A
:101CC000BC012384BC01A384BC012385BC01A38582
:101CD000FC00228D6A8B63F3AA01568BDA8652864A
:101CE000E6854A85EFE00FE5E31305EA05668145E1
:101CF0006685330D6D41EFE0AFD25A9AE31C0DFCBF
:101D0000B2479386170085473EC6E3E776F90D474D
:101D10006383E900E284268463F39A005684A286F2
:101D20005286E6854A85EFE0EFE0E31205E6818C16
:101D3000229AF5F00D47B14A638CE900C25641671B
:101D4000994A63F7E6000947914A6383E900854AA7
:101D5000D247639B07124257501885454A853ADCA3
:101D600002DEEFE02FE0E31405E2525B41679546A7
:101D7000A1491307E7C333563B03636BC70C130C2E
:101D80004006335C8B03056681456685EFE04FC9ED
:101D900013846C1C3C18938D6C1F9304F003130D7B
:101DA0004006930BF00363F1640D03AA070063661A
:101DB0004D016307AA0B330A8A0333079A00636451
:101DC000EB006371970A330A9B40A68522853EC6C5
:101DD000EFE06FDDD28513054400EFE0CFDC33D7B1
:101DE0007403230E54FF3356370333773703935668
:101DF000260093F606FCA30DC4FEA30CE4FE33F705
:101E00007403D2940507558F230DE4FE1387F4FF66
:101E1000B356770333D63603B3F63603A30FC4FEA7
:101E200033777703A30ED4FE9356260093F606FC71
:101E30000507558F230FE4FE63888D02B2474104E6
:101E40009107B5F015A0C2456685EFE0CFD551B535
:101E50008609FD1693F9F90F99FE9309F00F05B75E
:101E60005A8AA1BFE3130AF613075005238FEC1E0D
:101E70001307A0FAA38FEC1E85460146E6854A8526
:101E8000EFE04FCBE31505D0014681454A85EFE0F1
:101E90006FCDB336A0003DB4E39605A61DB4E3951F
:101EA00005A613060008BA84E37CE6B619BCEFE287
:101EB0008FB2011185451305800402C002C202C41D
:101EC00002C602C802CA02CC231E0100EF00B0768F
:101ED00085452165EF001078372401409307000401
:101EE0008D44C1498A85130504807C804EC426C276
:101EF000EF00B04D1305048093050004EF00F05887
:101F000037140140A14761498A85130504C07C80CC
:101F10004AC426C2EF00704B91478A85130504C05E
:101F2000231031013EC4EF00504A930700028A8516
:101F3000130504C07C804AC426C2EF001049B707CD
:101F400004013EC6B70702003EC8B7070002850776
:101F5000374400403ECAA1473ECC6C009D47130564
:101F600004C0FC86EF0070798545130504C0EF00BE
:101F7000B07C05616FE06FA9EFE28FA737440040A6
:101F8000AA84130904C089454A85EF00107D65DDE8
:101F9000A685130504C037440040EF00907B9304EE
:101FA00004C085452685EF00507B65DD130504C020
:101FB000EF00707A1375F50F6FE0CFA5EFE24FA336
:101FC0003724014001469305000413050480EF0007
:101FD000104C194555370546930500041305048038
:101FE000EF00F04A6FE00FA3EFE28FA0372401402B
:101FF00001469305000413050480EF005049154580
:10200000A53F1305F00F8D3FAA84054613050480F4
:1020100093050004EF00B04726856FE0AF9FEFE225
:102020002F9DD937058975FD6FE0CF9EEFE24F9C5C
:102030002A8437250140130505802E89B284930533
:1020400000040146EF00B0440D453D37135504012F
:102050001375F50F1537135584001375F50F293FC8
:102060001375F40F113F014493170401C18363EE0C
:1020700097003725014005469305000413050580A8
:10208000EF00F04001456FE0EF981305F00FED35DC
:10209000B307890088A30504C1BF9307F6FFC207F1
:1020A000C1831307F00F636FF706EFE26F94937726
:1020B000F50FB297130700102A8405456362F706EF
:1020C000B2842E89E53D3725014001469305000481
:1020D00013050580EF00B03B0945793D1355040118
:1020E0001375F50F513D135584001375F50F6935C0
:1020F0001375F40F51350144B30789008823050493
:10210000A53D93170401C183E3E897FE37250140FD
:1021100005469305000413050580EF00503701378D
:102120006FE04F8F05458280EFE20F8A9377F50FBE
:102130002A842E89B284135A8600B1E763080A0202
:102140009379FA0FAA8AB38BA540130BF00FFD19F0
:1021500093F9F90FB3855B016390690313158A0046
:10216000B305A90013F6F40F229521A02686CA858F
:10217000228525376FE0CF88568513060010313F42
:10218000938A0A10E9B7B309F04093F9F90F631184
:102190000A021377F60FE3FBE9FCBA974E8693F435
:1021A000F70FE53D2686B305390133858900D1B7A0
:1021B000139609014182918CC204C1804E944E99BC
:1021C00013DA8400937AFA0F13FBF40FF935A2891E
:1021D000330C8940930BF00FFD1A93FAFA0FB305F5
:1021E0003C01639C7A0193158A003305B400CA95BB
:1021F000E3020BF813F6F40FADBF4E851306001083
:10220000693D93890910C9BFEFD29FFE2A847D33AF
:102210003935B72401400146930500041385048035
:10222000EF00F02613050002813B135504011375DE
:10223000F50F9933135584001375F50F353B13755E
:10224000F40F1D3B05469305000413850480EF0041
:102250001024F1336FD01FFC01A0B707EFBE37E7A2
:1022600000E0938707083CC701A0EFD27FF87D7399
:10227000130303F91A910945EF001022052CEF0012
:102280009077716513050520EF00107AB7070020DD
:1022900083A5C708B7470F0093870724B3D5F50276
:1022A00037690020056413040403FD742EC6EF0093
:1022B000E074B2452A8637A500001305C51AEF6001
:1022C000A0452D2337A500001305C51CEF608049EC
:1022D0009305C9520945552137A500009305C952F8
:1022E0001305C520EF604043B76500202286938523
:1022F00045768800EF70B04FB76500201306800266
:102300009385C5730808EF70904E0567930707061D
:102310000808AA97938504FABE9593070706AA971B
:1023200081461306C95233858740EF003060AA8585
:1023300037A500001305C521EF60003E37A500005A
:102340001305C522EF600042A12EEF50407CEF4004
:10235000F04775DD37A500001305C526EF60804006
:10236000EF50300AEF50B029E5BFEFD27FE80545C6
:10237000EF0050370145EF0070310545EF00702F39
:102380000545EF0050320545EF0090330565854562
:1023900013050580EF0050286FD0DFE7EFD25FE52F
:1023A000E937B7E700E03707200023A4E7106FD034
:1023B0007FE6B71702409843B706FFF04111136755
:1023C000170098C3D84337060200758FD8C39843C7
:1023D000B706F7FEFD16758F98C39843B706FCFF46
:1023E000FD16758F98C3D843B70601FFFD16758F8C
:1023F000D8C39843B70600ECFD16758F98C337070E
:10240000FF0098C723A6070202C402C69843C1660C
:10241000558F98C3B716024005679C42F18F3EC6A0
:10242000A24785073EC4B24781E7A247E397E7FE8C
:10243000B71702409C431397E70063570706854789
:102440003EC632478547631FF704B7170240D8439B
:10245000B706C1FFFD16D8C3D843D8C3D843136706
:102460000740D8C3D843758FD8C3D843B7062900CF
:10247000558FD8C39843B7060001558F98C398432A
:1024800093166700E3DD06FED843B7160240719B42
:10249000D8C3D84313672700D8C32147DC42B18B88
:1024A000E39EE7FE4101828002C661BFB71602408B
:1024B000D8421146318B938741806305C70021467E
:1024C0006308C70237177A001307072098C3371726
:1024D0000240584311839376F70037070020130713
:1024E00007003697142398433357D70098C3828048
:1024F000D842D442416649833D8BF18E13062700B2
:1025000015CF3D47630FE6024147630FE60245479B
:1025100081456313E6004146A1E2374702400327A5
:102520000780418B0DC737177A0013070720330642
:10253000C70290C3C9DD9843058349BF8145494619
:10254000E1BF85453546C9BF81453D46F1B73717DF
:102550003D0013070790E1BF371502405855931609
:10256000F700585563DF060411833D8B930617006F
:1025700037177A00130707203357D70298C35455EB
:10258000A182BD8A8DE295463307D702058398C3A1
:1025900037170240585794433D8B050733D7E6025F
:1025A00098C3984369B705456394A600E546E9BF1B
:1025B0003D456396A600D1463387E602C9BF89062A
:1025C000E5BF3D8B9306170037177A0013070720E6
:1025D0003357D702F1B7EFD2BFC179711306C002EA
:1025E00081454800EFD0DFC385450545EF00D002A7
:1025F000C147B70402403EC6374400409307000875
:10260000130444403ECC138504038D6722C23ED49C
:1026100002C402C802CA02CE02D002D202D6E52605
:10262000B76700209387C7533EC44C009307002030
:10263000138504033EC822C202C6252B8545138597
:102640000403A52345616FD0FFBCEFD27FBA4111CF
:1026500002C202C402C62AC085476398F5028D678C
:102660007C8385476318F602930700607C84856746
:102670007C8237450040B1478A85130505407C853B
:10268000EF00500E41016FD0FFB88947E39BF5FC86
:102690008967F9B78947E31EF6FC93070040F9B74D
:1026A000EFD27FB3411185451145EF00C0788545D4
:1026B0002145EF004078854537050200EF0080791D
:1026C00085450545EF004075B7140140138504802A
:1026D000914502C202C402C64D2B91490D49C14722
:1026E0004C0013850480231231014AC43EC637448E
:1026F0000040E1298357C4404C0013850480C20781
:10270000C183CD9BC207C1832316F440A1477C82BD
:10271000930780043EC65529E1474C001385048089
:102720003EC613040440231231014AC47929653599
:102730002285054693050004EF00300D71650146C2
:10274000814513050520113785452285EF00900A44
:1027500041016FD09FABEFD2BFA91C31182150317E
:10276000A2075D8F3C214C21C207D98F3831620707
:102770003365F700D93D6FD0FFA9EFD2DFA55D71BA
:10278000AE84B7A500002A84938585284810EFE021
:102790001FF609ED37A90000B7A900006C0048102A
:1027A000EFE07FFD19C54810EFE05FFB61616FD07E
:1027B000DFA583075101E5DB930551011305C92806
:1027C000EF5090759385892913055101EF70101111
:1027D00071D569D429469305510126857D14EF7082
:1027E000B00D1374F40F238604004DBFEFD25FA029
:1027F00037A40000B7640020011105469305842822
:102800001385447602CA02CC231E0100230F010067
:10281000EFE0BF966310050E37A500001305C5292C
:10282000EF50507437640020B7A400002946938508
:1028300044331305C473EFE0BF996302051237A553
:10284000000013050534EF50F07137A500001305A3
:102850000537EF5030710566A9659385454014082A
:10286000130686C61305C473EFE09FC6C2452A89C6
:1028700037A5000013050539EF50106A63080900F9
:1028800037A500001305453AEF50D06D1305C4730A
:10289000EFE0FFE30546938544331305C473EFE08F
:1028A0003F9319C537A500001305453BEF50906BCA
:1028B00037A500001305853CEF50D06A14082D465B
:1028C0004C081305C473EFE07FAC19C537A50000B1
:1028D0001305853EEF501069C24537A5000013056A
:1028E000453FEF5070631305C473EFE05FDE056191
:1028F0006FD05F92B547E317F5F237A500001305D7
:10290000852BEF50306681458146014613058428AA
:10291000EFE03FEBAA851DED37A500001305C52CA0
:10292000EF50506405469305842813854476EFE004
:10293000DF842AC6E30205EE37A500001305C52E85
:10294000EF505062B24537A5000013054530EF50F7
:10295000B05CC9BD37A5000013054531CDBF37A513
:10296000000013054535C5B501A097E1FF1F938110
:10297000E1F117D100201301E1681795000013055C
:10298000250297D5FF1F9385E5671386818463FA37
:10299000C5008322050023A0550011059105E3EA37
:1029A000C5FE174500201305E5B397550020938514
:1029B000A5156377B500232005001105E36DB5FE6D
:1029C000FD42739002BCAD4273904280B76200003A
:1029D000938282087390023097D2FFFF9382C26283
:1029E00093E2320073905230EFF0BF9C97020000E8
:1029F0009382E2877390123473002030B7F7FF1F81
:102A000003A5477082801C4141677917F98F1CC16B
:102A1000232005002322050023240500B7070240D8
:102A200023260500138787006317E500D843136743
:102A3000F700D8C382801387C7016316E500D84327
:102A40001367070FFDB7138707036318E500D84323
:102A50008566938606F0558FE9BF13874704631593
:102A6000E500D843BD66C5BF138787056316E5003B
:102A7000D843B7060F00C5B71387C7066316E5002E
:102A8000D843B706F000C1BF138707086316E500F7
:102A9000D843B706000FC1B7138787406319E50015
:102AA00003A747401367F70023A2E74082801387FC
:102AB000C7416317E50003A747401367070FEDB74A
:102AC00093870743631BF500B707024003A74740FE
:102AD0008566938606F0558FC1BFB70702401387FE
:102AE00047446316E50003A74740BD66EDB713876B
:102AF00087456317E50003A74740B7060F00E1BF0E
:102B00001387C7466317E50003A74740B706F000E1
:102B1000D9B7138707486317E50003A74740B706EF
:102B2000000F55BF138707496319E50003A7474DF9
:102B30001367F70023AAE74C82801387074A6317BD
:102B4000E50003A7474D1367070FEDB71387074B42
:102B50006319E50003A7474D8566938606F0558FF8
:102B6000D1BF1387074CE319E5FC03A7474DBD66AA
:102B7000FDB71C4161773D0794517D8F9C45D58FF2
:102B80009449D58FD449D58F944DD58FD44DD58FB9
:102B9000D451D58F9455D58FD98F1CC1DC455CC1DC
:102BA0009C411CC5DC415CC582801C4189C593E702
:102BB00017001CC1828041677917F98FDDBF4CC1B6
:102BC000828048414205418182809C4513F707017C
:102BD00013F8F70001C7D8413368E8008E2113F7D6
:102BE000F50F39C318418146854E3D4F930F800242
:102BF00093028004214E3396DE00B3F8C5006311C2
:102C000016039398260033131F011343F3FF337702
:102C1000E300B318180133E7E800639FF70550C9D4
:102C20008506E39AC6FD18C11307F00F6375B70454
:102C300054412146854E3D4F930F800293028004FC
:102C4000414EB398CE0033F715016392E802131793
:102C5000260001173313EF001343F3FFB376D300BD
:102C60003317E800D98E639DF701232A1501050665
:102C7000E319C6FD54C18280E39457FA10C94DB7D9
:102C8000E39757FE23281501DDB70CC9828019C2CE
:102C90000CC982804CC98280B767002023A2A74E4E
:102CA0008280371702405C439146B18B6385D70021
:102CB000A1466382D706B7177A00938707201CC105
:102CC000371602405C423707002013070701918343
:102CD000BD8BBA9794231C41B3D7D7005CC1544233
:102CE000A1829D8ABA969422B3D6D70014C55442C5
:102CF000AD829D8A36971823B3D7E7005CC558424A
:102D00003983937637001387818036971823B3D79A
:102D1000E7021CC982805C435843C166C983758F32
:102D2000B7F6FF1F83A6C670BD8B890713961601E1
:102D300063480600C54601466392D702C94739A8D1
:102D40008946638FD702BD46638ED702C146638E24
:102D5000D702C54601466393D700C1471DEF3747E9
:102D6000024003270780418B05C737177A001307F6
:102D70000720B307F7021CC121D61C41858381B708
:102D800001466DBF0546B547D1BF0146BD47F9B7FE
:102D900037173D0013070790E9BFB7150240D85514
:102DA0009316F700D85563DF060411833D8B930615
:102DB000170037177A00130707203357D70218C1B7
:102DC000D455A182BD8A8DE295463307D70205838B
:102DD00018C137170240585714413D8B050733D7A8
:102DE000E60218C1184171B785456394B600E546FF
:102DF000E9BFBD456396B600D1463387E602C9BF39
:102E00008906E5BF3D8B9306170037177A00130735
:102E100007203357D702F1B799C5371702405C4BEB
:102E20005D8D48CB8280B7170240D84B1345F5FF24
:102E3000798DC8CB828099C5371702401C4F5D8DB4
:102E400008CF8280B7170240984F1345F5FF798D60
:102E500088CF828099C5371702405C4F5D8D48CF7F
:102E60008280B7170240D84F1345F5FF798DC8CF40
:102E70008280B7170240D857B70600F9FD16758F44
:102E8000D8D7D8576205598DC8D78280B717024066
:102E9000D857B70600F8FD16758FD8D7D8576E05E6
:102EA000598DC8D78280B7170240D857B70600D0CF
:102EB000FD16758FD8D7D8577205598DC8D782801F
:102EC00009C9371702405C57B7060040D58F5CD759
:102ED0008280B7160240DC56370700C07D17F98F95
:102EE000DCD68280371702405C577E0586078583D3
:102EF0005CD75C575D8D48D782801A218D67938798
:102F00000704B6217D8F9E21D58FD621D58FF6213E
:102F1000D58F9625D58FB625D58FD625D58FF62575
:102F2000D58FD98F1EA15A2DFD779387F77FF98F03
:102F30005EAD9E291EA982801E2189C593E70704E4
:102F40001EA18280C207C18393F7F7FBC207C1832A
:102F5000C5BF4EA582804A2582800A256D8D3335F6
:102F6000A0008280EFD2CFA81629F577FD17F58F44
:102F7000F621DA257971D58F1EA95625FD7793871D
:102F8000379FF58FD6212A842EC6D58F9625D58FCB
:102F9000B625D58F5EA55E29C207C18393F7F7CF0B
:102FA000D98F5EA96808EFF0DFCFB747014093875C
:102FB0000780B245631EF402A2576547B387E70254
:102FC0009841930640060A07B3D7E70233D7D702E2
:102FD000B3F7D7021207920793872703B3D7D70215
:102FE000BD8BD98FC207C1831EA445616FD08FA24C
:102FF0009257E1B791C55E250967D98F5EA582809A
:103000005A25F977FD17F98FD5BF5E2901C6DD8DE9
:103010004EA9828093C5F5FFFD8DDDBF93F5F51FA9
:103020004EA182800A216D8D3335A000828093C528
:10303000F5FFC205C1810EA18280B767002093878A
:10304000874E01C505476308E500370700201307D1
:10305000070298C382803707002013074705D5BFB2
:10306000EFD20F99AA840545EF30A0648D4715C9AA
:10307000376400201304844E1C409057CC57C8532B
:10308000EF30202A914711CD0840814701480C417B
:103090000147814626865105EF30403F814711E1C7
:1030A00099473E856FD00F97EFD2EF922A89AE896C
:1030B000B284376A002081E401456FD00F958327E1
:1030C0008A4E930A8A4E805B63F384002684885379
:1030D0002286CE85EF30E0240DC103A50A00014809
:1030E0008147185114590C494A865105EF30003A6E
:1030F00019C52299A299818C7DBF15457DBF2D45AB
:103100006DBFEFD2EF8EB767002003A5874E014851
:1031100081470C450147814601465105EF30003794
:10312000A94711C181473E856FD0CF8EEFD2AF8ABC
:10313000130101BF36852E84B284EFF01FF0EF300B
:10314000004D854759CD37050008193F894751E99A
:103150004D3F8D4759E50546A6852285EFE04F870F
:10316000914741E148441309F03FEF609047EF6019
:103170003054B7B7000003A6073283A64732EF509A
:1031800030602A8637B50000AE8613058532A685E5
:10319000EF508058B70400087400130600400C0874
:1031A0002285EFE0AF9E39E1130600400C0826852A
:1031B000B249EFF07FEF0DED93840440E36E39FDEB
:1031C0002285EFE0CFD0EF308044994719C90145FF
:1031D000EF30A00D37B5000013058534EF5080584F
:1031E00081473E85130101416FD02F829547D5BF9E
:1031F00093077003FDB7B707002083A7C7083717E9
:103200007A0013070720B3D7E7023767002093F748
:10321000F70F2307F74E1307803EB387E7023767A0
:1032200000202316F74E8280EFC29FFC2A8411658E
:10323000011185451105EFF01FC0930700207C8226
:10324000371501408D473EC44C00E147130505800A
:103250003EC6EFF09F9722C837440140B7070800E9
:103260000C08130504803ECC02CA231E0100EFF0B7
:103270007FCF854513050480EFF0DFD705616FC070
:103280007FF9EFC25FF5B7440140AE89328901444E
:1032900093840480634524014A856FC01FF793051A
:1032A00000042685EFF01FD87DD9B3878900838578
:1032B000070026850504C205C181EFF03FD6D9BFBE
:1032C000B7376E01377700209387F75F1307477989
:1032D00063F7A70085471CB385475CC38280B77737
:1032E000DC029387F7BFAA9733D5A702A300070094
:1032F00089468547E303D5FE8D47B357F502F1BFF5
:10330000EFC21FEC1C217D47797193C607086367E4
:10331000D700EF10401C45616FC05FEE13871500AA
:103320003AC49CA175472E846374F7006F10200E79
:103330002D678A0713074736BA979C432A8A8287E4
:103340001C311307000F638FE708636FF7000D4709
:103350006388E7021147638EE7060145B70902005B
:1033600008B089094E9545BF1307E00F6382E7084F
:103370001307F00FE393E7FE238105008947B5A00B
:10338000B7F6FF1F03A7867E83A7C67EB70560003A
:103390001316F700D60771834607ED8FD98F3D824C
:1033A000D18F03A6067FB7740020B7B500003D8219
:1033B0005E065D8E9385C53D1385847DEF50003894
:1033C00025469385847D13052400EF6050422545F2
:1033D00071B719469385C18313052400EF6030410E
:1033E0001945ADBFCD47BCA185473CB00945BDB728
:1033F000A147BCA105459DB71C3181CF054763841A
:10340000E702FD579CB1B709020085094165050532
:1034100091BF3821B717014093870780058B19C7E3
:1034200013070010D8CBA3000400F1BF130700104E
:1034300098CBD5BF1C3191CB05476388E70009477E
:10344000638FE70681471CB0A5AE0547B77700201C
:10345000854513050004238AE77802D202D402D6F8
:10346000EFF07F9D9967372501402312F1028D44CB
:10347000C1474C10130505803ED626D4EFF0EFF47B
:1034800037150140996513050580EFF01F808545CC
:103490004145EFF05F9A930700102312F1024C10A0
:1034A000D147371501403ED626D4EFF00FF29305F1
:1034B000001037150140EFF04FFD854769B73777AA
:1034C0000020854513050004230AF778B729014039
:1034D00002D202D402D6EFF01F9699678D4441497B
:1034E0004C10138509802312F1024AD626D4EFF03E
:1034F000CFED996513850980EFF02FF9854541459A
:10350000EFF07F93930700102312F1024C10D14784
:10351000371501403ED626D4EFF02FEB930500106F
:1035200037150140EFF06FF685452145EFF0BF906C
:103530004AD637190140E1774C10130509C0231210
:10354000F10226D4EFF06FE891672312F1024C10DC
:103550009147130509C03ED626D4EFF00FE7A165C9
:10356000130509C0EFF06FF28947F1BDB77700206E
:103570003725014011498D44238A07784C109967FB
:10358000130505802312F102231301024AD626D423
:10359000EFF0AFE3930700104C10371501402312F2
:1035A000F1024AD626D4EFF04FE237150140F17709
:1035B0004C10130505C02312F1024AD626D48549C2
:1035C000EFF0AFE0A300040091B53C211831A20751
:1035D000D98F96073ED29257FD173ED2EDFFA1B587
:1035E00023810500A380050089490DB55C2183492D
:1035F00035002421A207B3E737018349550013FAA8
:10360000140003491500C209B3E7F90083496500B6
:10361000E209B3E9F900630C0A00B7270140137708
:1036200019009387078063000710116798CB93FAFE
:103630002400638B0A00B727014013772900938782
:1036400007806DC7096798CB13FB4400630C0B0020
:1036500013572900B7170140058B938707C071CB1B
:10366000216798CB939B840193DB8B4163DA0B003A
:1036700093577900F1C3B71701401307001098CB97
:1036800063820906935519001355290013585900F0
:1036900013567900B726014093F40402371701400E
:1036A00063080A0083A7C680B983858BE31AF9FEF5
:1036B00063880A0083A7C680B583858BE392F5FEF5
:1036C00063080B008327C7C0BD83858BE31AF5FC15
:1036D00099C0E31708FC63D70B005C47A183858B77
:1036E000E310F6FCB727014003A6C7803717014057
:1036F00093870780DC478325C7C0832687C0B183B3
:103700005847B581898B91893982CD8F058AAD82E1
:10371000D18FA18A0583D58F13770708D98F1CB065
:10372000B7090600DDB11167D8CB11B70967D8CB4F
:1037300021BF2167D8CB3DB7B71701401307001051
:10374000D8CB0145EF20703625BF83472A000831CA
:10375000A207C98F03453A004205C98F03454A00B5
:1037600062055D8D11E5FD579CB1B709040071B983
:10377000EFF01FB5A3000400CDBF834915009305EA
:10378000250063940900930900104E859D09EF10F0
:10379000D05E93D93900A30004008509C20993E9DA
:1037A0001900ADB11C31377700201307477993F624
:1037B000370089838506858B14AF1CBFA380050065
:1037C000C169A1B1A38005000431938A2500930744
:1037D0002500054A8549FD5CB72B0140370B00FFEA
:1037E000370C3001370D4000FD1463969401C20977
:1037F000B3E9490121B98823138917001374F5032C
:1038000019E01304000493870B80D843931D8501AE
:103810001D0433776701D8C3D84393DD8D410D80F4
:1038200063DD0D023367A701D8C35686CA85EF1042
:10383000305B89EC03A74B803377670123A2EB80D1
:1038400003A74B803367870123A2EB80850963D9E7
:103850000D00A29A229ACA8741BF33678701E9B750
:103860002299A299CDBFA3800500034A1500938A2F
:1038700025009307250005498549FD5B7D1A6316E0
:103880007A01C209B3E9290151B68423138B1700C9
:1038900013F4F40319E01304000426851D0456866E
:1038A000DA850D80EF00D043E20413071400E184B1
:1038B000B3078B00BA99E3D304FCA29A22997DBF87
:1038C00083491500B777002013874779230D370107
:1038D00093864779938547790146938747790147CE
:1038E00085078905636B360136868147850609069B
:1038F00063ED3701A30004004DB53305CA0028214C
:103900000506A8BFBAB12A97E1BFAC3E85070D8F67
:103910003ABAE9BFB77700209387477994230947DC
:10392000639AE6021831B8BFBC2F6375F7023945B8
:10393000EF10000FEF0050479357850028A03CB0D0
:10394000C169935705016181A30004005CA048B0E0
:1039500095096DBCFD57C5BC1831B777002093871A
:103960004779D8A7383134212207558F9AAB58317F
:1039700054212207558FBAABA3000400B7090500F4
:1039800069B4B774002083CD4479930715003ECA0B
:103990008547938444796385FD028947638CFD36AE
:1039A000382193093500631F076CD247A300040038
:1039B00023010400B389F940C20993E92900B9B48D
:1039C000376900209307F94E130D3500034C25008D
:1039D0009389350023800700814B814C014502C843
:1039E0001309F94E094B854A63140C048546631389
:1039F000D502638E0C2E8628094A4C103945EF10EB
:103A0000704A6313452D99C403470900FD141377C9
:103A1000F70F65D7C24728A01CB0D247B307FD40B7
:103A200013950701A247B389F940B3693501F9BA83
:103A3000034A0D0093071D003EC693762A0063805B
:103A4000061E63870C0893761A0183DD0401639FC9
:103A500056034C105285EF10F044631A65056388D5
:103A60000D0083460900FD1D93F6F60FFDD2324D81
:103A700083460D0013F6260063060624C18A63936D
:103A80000624050D7D1CE3150CFE8DB74C10394541
:103A9000EF105041631C650163880D000347090066
:103AA000FD1D1377F70F7DD3814CD1B7814CE31007
:103AB00055FD9256910913D68600238ED9FEA38E0A
:103AC000C9FE13D60601E182238FC9FEA38FD9FE5A
:103AD00093760A01922893751A00CDCA834D2D0062
:103AE00083461D0093075D00A20DB3E6DD00834D04
:103AF0003D003EC6C20DB3EDDD0083464D0003DD43
:103B00002401E206B3EDB6019DC18145528532CC58
:103B1000EF105039631B6501624631DA83470900B3
:103B20007D1693F7F70FF5D399B7E31255F5922861
:103B30004C10528532CCEF10F036AA87631465031F
:103B4000624619C6834609007D1693F6F60FEDD23C
:103B5000D4481256F18E6387DD0213E50701137511
:103B6000F50F31B7D0489256F18EE31355FFE3813C
:103B7000DDFEE30F0DFC834609007D1D93F6F60F75
:103B8000DDD6F9B7E39557EF814B0DA8B1C5E39D9D
:103B90000CFE8145528532CCEF10D030631C65019C
:103BA0006246E30306F0834709007D1693F7F70F9B
:103BB000EDD375BDE31D55EB814B854CC247930694
:103BC000FCFF85073EC88347090093F7F70FE39092
:103BD00007EA368C324D09BD4C10528532CCEF10BD
:103BE000702C631C65016246E30306E88347090005
:103BF0007D1693F7F70FEDD39DBDE31A55E7925766
:103C0000910993D68700238EF9FEA38ED9FE93D611
:103C10000701E183238FD9FEA38FF9FEB5B7638433
:103C20000C0483DD04014C103945EF10B027631BF1
:103C30006501E38E0DE283460900FD1D93F6F60F44
:103C4000FDD235B5E31555E3125791099356870018
:103C5000238EE9FEA38ED9FE935607016183238F3D
:103C6000D9FEA38FE9FE83462D0003471D0093076D
:103C70005D00A206D98E03473D003EC693770A0237
:103C80004207D98E03474D006207558F3AD289C744
:103C9000D8C8814C05451DB783DC04014C10528502
:103CA000EF105020631B6501E3830CDC83470900A0
:103CB000FD1C93F7F70FFDD3C5BBE31755DF854B0D
:103CC000814CEDBD150D7DBB0547E315E5D41257BD
:103CD000910993568700238EE9FEA38ED9FE935651
:103CE00007016183238FD9FEA38FE9FE25B3E38308
:103CF0000BD28628094A81453945EF10B01AE31BDB
:103D000045D1E38904D003470900FD141377F70F69
:103D10007DD309B3B76A00209387FA4E238007004A
:103D20001C31B82C93893500BCBC938AFA4E63F6DB
:103D3000E734130D3500834C25000147014A014546
:103D400002C8894B054C639B0C043A8905476319EB
:103D5000E50229476305E9002945EF00704C8628F4
:103D60000949630D0A2E4C103945EF10A007631462
:103D7000252D99C403C70A00FD141377F70F65D7E3
:103D8000C247224728A01CB0D247B389E940B307F5
:103D9000FD40C207B3E937016FF04FE7034B0D0059
:103DA00093071D003EC613791B0093762B0029094B
:103DB000638F061A63080A08962863182703137688
:103DC0000B0105E64C105A853ACE36CCEF10800137
:103DD000724763187505E24699C603C60A00FD16C8
:103DE0001376F60F65D23A895DA8A9476307F700F5
:103DF000294536CCEF00D042E246368A4C10394590
:103E0000EF00507E631D7501630B0A1803C70A009B
:103E10007D1A1377F70F7DD32949014A49A0294715
:103E2000014AE31285FD9256910913D68600238E2E
:103E3000D9FEA38EC9FE13D60601E182238FC9FEE7
:103E4000A38FD9FE93760B01F1CA83462D0003465A
:103E50001D00A206558E83463D00C206D18E034644
:103E60004D006206B367D6003ECC93075D003EC6A8
:103E700003DD24016305E9004A85EF00703A9A28C2
:103E800081455A853ACEEF00F07563197503724784
:103E900019C783C70A007D1793F7F70FF5D3324D83
:103EA00003470D009376270063850618418B631244
:103EB0000718050DFD1CE3950CFE49BDE31185FFB8
:103EC0009A284C105A853ACEEF00D071AA87631C0D
:103ED0007501724719C783C70A007D1793F7F70F5B
:103EE000EDD3EE870DA0D8489256758F631D8501DE
:103EF000E246638AE60063080D0003C70A007D1DE1
:103F00001377F70F55DF9256D848758FE246638DC9
:103F1000E61013E507011375F50F51B763190A1081
:103F20006305E9004A85EF00B02F03DD04018145F8
:103F30005A85EF00306B631B7501E3000DEE83C7FC
:103F40000A007D1D93F7F70FFDD391BFE31985F5A7
:103F5000054AC2479386FCFF85073EC883C70A000F
:103F600093F7F70F8DFF4A87B68C324DE9BB630C90
:103F70000A04A9476305F7002945EF00702A96282F
:103F80004C10394536CCEF00F065631C7501E246F4
:103F900099C603C70A00FD161377F70F75D3294991
:103FA000FDBDE31E85FF1257910993568700238EAE
:103FB000E9FEA38ED9FE935607016183A38FE9FE24
:103FC000238FD9FE294703462D0083461D00930702
:103FD0005D002206558E83463D003EC693770B0258
:103FE000C206558E83464D00E206D18E36D291C769
:103FF000D4C83A89014A0545A9BF6305E9004A8545
:10400000EF00102203DA04014C105A85EF00905D96
:10401000631B7501E3050AE883C70A007D1A93F75D
:10402000F70FFDD3DDBB014AE30585F38DBD3A896A
:104030000DB7150D41B50547E314E5D412579109A5
:1040400093568700238EE9FEA38ED9FE935607016F
:104050006183238FD9FEA38FE9FE1DB381453945C6
:10406000EF005058E31E25D1E38C04D003C70A00AB
:10407000FD141377F70F7DD321B3130D250002C86C
:104080000145FDB983C7090093F6270091C6C18B8E
:1040900081E785097D1701BA9509EDBFB774002046
:1040A00083C74479054793844479638DE7000947C2
:1040B0006383E718A380050023810500A381050021
:1040C0008D49F9A8376B00209307FB4E834A3500D2
:1040D000238007003C21A20A93894500B3EAFA0035
:1040E000130BFB4E63870A14834C450093F72C0097
:1040F0009DEB130C55000149094D854D83DB0401EF
:1041000063962A0F8944FD5A81453945EF1080593D
:10411000631E9506FD1B638B5B0783470B0093F7BC
:10412000F70FFDD3A5A093F71C0085CB03D904019D
:10413000894B81456685EF10E056631C7501630766
:10414000090483470B007D1993F7F70FFDD301494D
:1041500035A885470149631BF5020149054C094D06
:1041600063968A0193F71C0091C3B94C83DB040169
:104170004C106685EF1000536314A50563880B008F
:1041800083470B00FD1B93F7F70FFDD3A30024011A
:104190001359890023012401A24728B0B389F940AB
:1041A00083474A0037050400898BE390078803455D
:1041B0003A0083472A0022055D8D05054A05B5B002
:1041C000FD1AE31585FD92579109050913D787005C
:1041D000A38EE9FE13D70701238EF9FE238FE9FE94
:1041E000E183A38FF9FEE39D0AF64DB703471C0058
:1041F00083470C00110C22075D8F8347ECFFC20739
:104200005D8F8347FCFFE207D98F3ED24C10668555
:10421000EF104049631BA501E38A0BF683470B00AF
:10422000FD1B93F7F70FFDD395B7E311B5F705091C
:10423000F1B5014529BFB76A00209387FA4E238064
:1042400007001C31B82C93894500BCBC938AFA4EF8
:1042500063F5E714034935003C2122093369F9006D
:10426000630D0912034C4500137B1C00290B5A8572
:10427000EF00007B93772C00E28BB9E7930B5A0099
:10428000814D894C054D03C71B0083C70B00910B63
:1042900022075D8F83C7EBFFC2075D8F83C7FBFFDC
:1042A000E207D98F9A283ED24C1062853AC6EF00B9
:1042B0007033631A950B324735CB83C70A007D17DD
:1042C00093F7F70FF5D39DA083DD0401894C814559
:1042D0006285EF003031631C950163890D0483C74B
:1042E0000A00FD1D93F7F70FFDD3814D81A085478F
:1042F000814D631DF502054C294D894C63188901D8
:10430000B94B6305AB012945EF0080719A284C1029
:104310005E853AC6EF00102D63119503324719C729
:1043200083C70A007D1793F7F70FF5D3A300B401F5
:1043300093DD8D002301B40185B57D19E31885FF58
:1043400092579109850D13D78700A38EE9FE13D7E5
:104350000701238EF9FE238FE9FEE183A38FF9FE87
:10436000E31E09F8E1B7E313A5FD850DE31DB9F1DF
:10437000A9476304FB00294565258628094981452D
:104380003945EF003026E31325FBCDD083C70A0063
:10439000FD1493F7F70FE5D751BF0145B9B7B777CC
:1043A000002093874779982385466309D70089467B
:1043B0006307D702FD571CB06FF04FDC38313C214A
:1043C0004C1022075D8F5C21C2075D8F5C31014577
:1043D000E207D98F3ED2EF10E02C6FF0EFD9183101
:1043E000B8BFBC2FE378F7FC21451D2D03453A00EB
:1043F00083472A0022055D8D83474A00C207C98F83
:1044000003455A0062055D8D252E6FF0EFD6FD57EE
:1044100041651CA005056FE01FF0EFB2DFDB142142
:104420001306F0076391C60494A104313704020017
:10443000416A130925009389250084B10904FD5AB6
:104440007D1AFD146395540122856FB01FDCCE8563
:104450004A85EFE0FFEA935705012A943375450139
:104460003E99AA99F9BFEFE0BFE92A84F1BFEFB204
:104470003FD8B7770020938747791307400698CB3A
:10448000054741119AAF239007000547854511451F
:10449000D8C32386070023AA0700238D070002C282
:1044A00002C402C6EFE03F99930700107C823714E4
:1044B0000140D1473EC64C008D47130504803EC4E1
:1044C000EFE0AFF093070010232AF4801304048078
:1044D00041016FB03FD41C21416505059CA182803C
:1044E0009376F50399E293060004B727014013770A
:1044F00005049387078015CF096798CB377E002086
:10450000130E4E79B71E0140216FB72F0140916203
:1045100013750508850503C3F5FF83234E00214865
:104520008147C9E209C5B3D707011CA20506FDF200
:1045300082800967D8CBD9B7850503C3F5FF8323EC
:104540004E0021488147A1C61377130093880EC0FF
:1045500039C723A8E80123AA5F801EC632477D170A
:104560003AC66DFF03A78EC023A85F801EC439839F
:10457000058BA248FD1846C4E39D08FE85831E07EF
:104580007D1813531300D98FFD16E31E08FA09C5D1
:10459000B3D707011CA20506C5F24101828023AAF8
:1045A000E80155BF41114DB7B7270140096723A85E
:1045B000E780116723AAE7803777002093074779C0
:1045C000DC433971930647793ECA52477D173ACA90
:1045D0006DFF3727014011662328C7803EC8424738
:1045E0007D173AC86DFF372701400966232AC78027
:1045F0001166232AC7803EC632477D173AC66DFF33
:104600003727014011662328C7803EC422477D1703
:104610003AC46DFF372701401166232AC7803EC286
:1046200012477D173AC26DFF3727014011662328D4
:10463000C7803EC002477D173AC06DFFB83E37269F
:104640000140916571EFB7260140FD4593860680D4
:1046500011681163B718014023AA66003ED21256B2
:104660007D1632D26DFE03A588C023A806013ED078
:104670003981058902567D1632D06DFE7E05598D31
:10468000FD1513571500E9F9B7260140096623A85F
:10469000C680116623AAC6803EDEF256FD1636DEBF
:1046A000EDFEB716014003A586C01166B72601408E
:1046B000398123A8C68005893EDCE256FD1636DC2A
:1046C000EDFE7E05598D916637270140232AD7805C
:1046D0003EDA52577D173ADA6DFF3727014091666F
:1046E0002328D7803ED842577D173AD86DFF372709
:1046F00001408966232AD7809166232AD7803ED637
:1047000032577D173AD66DFF37270140916623282F
:10471000D7803ED4A257FD173ED4EDFF21618280A1
:10472000232AB6803ECEF246FD1636CEEDFE232875
:10473000B6803ECCE246FD1636CCEDFE7D1719B7AD
:10474000B7270140096723A8E780116723AAE780FC
:104750003777002093074779DC43597193064779EF
:104760003ECA52477D173ACA6DFF3727014011668E
:104770002328C7803EC842477D173AC86DFF3727B8
:1047800001400966232AC7801166232AC7803EC6D6
:1047900032477D173AC66DFF37270140116623283F
:1047A000C7803EC422477D173AC46DFF37270140BA
:1047B0001166232AC7803EC212477D173AC26DFF99
:1047C0003727014011662328C7803EC002477D1766
:1047D0003AC06DFFB43E372601409165639B061ACF
:1047E00037170140A166232AD7C0372701409166B9
:1047F000232AD7803EDA52577D173ADA6DFF3727E2
:10480000014091662328D7803ED842577D173AD879
:104810006DFF372701409166232AD7803ED6325755
:104820007D173AD66DFF3727014091662328D78040
:104830003ED422577D173AD46DFF37270140916649
:10484000232AD7803ED212577D173AD26DFF3727E1
:10485000014091662328D7803ED002577D173AD079
:104860006DFF372701407D4637130140A1651307CF
:1048700007809168116E93761500130803C0638A50
:1048800006122328B800232AC7013EDEF256FD1681
:1048900036DEEDFE232817013EDCE256FD1636DC3F
:1048A000EDFE7D16058161FAB77600201386467904
:1048B000382E303E058993864679118F0546630E62
:1048C000C71037160140130606C0A16575C50CCA8E
:1048D000372601409165232AB680BEC216467D1652
:1048E000B2C26DFE3726014091652328B680BEC056
:1048F00006467D16B2C06DFE7917B72501401165D9
:104900001386058045EF096718CA116758CABECAE1
:1049100056477D17BACA6DFF372701401166232815
:10492000C780BEC8C647FD17BEC8EDFFB727014008
:10493000116723AAE780DC42BED636577D17BAD668
:104940006DFF3727014091662328D780BED42657B4
:104950007D17BAD46DFF372701408966232AD78097
:104960009166232AD780BED216577D17BAD26DFF23
:104970003727014091662328D780BED08657FD1780
:10498000BED0EDFFB7170140216723A8E7C06561DE
:104990008280232AB6803ECE72477D173ACE6DFFC5
:1049A0002328B6803ECC62477D173ACC6DFFFD16BA
:1049B00035B5232AB800C1BD4CCA19BF48CABEC606
:1049C00036467D16B2C66DFE23A8A580BEC4264617
:1049D0007D16B2C46DFE7D1725B7372701400966E5
:1049E0002328C78037170140130707C021661DC55C
:1049F00010CB372701401166232AC780BECE7647E9
:104A00007D17BACE6DFF3727014011662328C78076
:104A1000BECCE647FD17BECCEDFF09BF50CBD1BFE2
:104A20003777002093064779B03E130747799307FD
:104A300086008607B6979432CE2BB727014093871E
:104A4000078063800612096823A807019166D4CB0A
:104A500094CBD4CB94CB23AA0701D4CB94CBD4CB87
:104A600094CBB7170140A16623A8D7C037280140CF
:104A70009167D9E53A965C2E854837130140216647
:104A8000372E0140916593761500639117093C3FDD
:104A9000C10786073E975A2B59CFB7170140938716
:104AA00007C0C1C6A16694CBB7270140916623AA6F
:104AB000D78023A8D780A166B717014023A8D7C005
:104AC0003726014091667D179307068035E3096715
:104AD00098CB1167D8CB98CBB7270140116723AA91
:104AE000E78023A8E780896623AAD78023AAE780E6
:104AF00023A8E780B7170140216723A8E7C0828079
:104B0000232AF8802328F880FD15A5B7130803C0D1
:104B100091CA2328C800232ABE802328BE8005818D
:104B2000FD1795B7232AC800FDB7A166D4CBADBF4A
:104B3000D4CB94CB49BFB7270140096723A8E780AE
:104B4000B7170140938707C0216791CA98CBB72751
:104B50000140116723AAE78023A8E780B5BFD8CB1F
:104B6000FDB7896694CB9166D4CB5C431D71BEC002
:104B70008646FD16B6C0EDFEB7260140116823A893
:104B80000681BEC29646FD16B6C2EDFEB7260140AE
:104B9000116823AA0681BEC4A646FD16B6C4EDFE62
:104BA000B7260140116823A80681BEC6B646FD1689
:104BB000B6C6EDFEB7260140096823AA0681116832
:104BC00023AA0681BEC8C646FD16B6C8EDFEB726A6
:104BD0000140116823A80681BECAD646FD16B6CA92
:104BE000EDFEB7260140116823AA0681BECCE64639
:104BF000FD16B6CCEDFEB7260140116823A806814C
:104C0000BECEF646FD16B6CEEDFE2168B7160140C3
:104C100023A806C1916837280140639605103A968B
:104C20004C2E054EB71E01402168B7280140116384
:104C3000137615006399C5113C3FC1078607BA97E3
:104C4000D62B638D0614B7170140938707C0630501
:104C50000612216690CBB7270140116623AAC780B0
:104C60005C433ED422567D1632D46DFE3726014079
:104C700091652328B6803ED632567D1632D66DFE1B
:104C8000A165371601402328B6C00548B725014065
:104C90001165138605806394060F896614CA9166B0
:104CA00054CA3ECCE246FD1636CCEDFEB726014096
:104CB000116623A8C6803ECEF247FD173ECEEDFF1B
:104CC000B7270140916623AAD7805C433EC00247C4
:104CD0007D173AC06DFF3727014091662328D780A2
:104CE0003EC212477D173AC26DFF372701408966E1
:104CF000232AD7809166232AD7803EC422477D1776
:104D00003AC46DFF3727014091662328D7803EC6FD
:104D1000B247FD173EC6EDFFB7170140216723A834
:104D2000E7C025618280232A18813EDCE256FD1609
:104D300036DCEDFE232818813EDEF256FD1636DE07
:104D4000EDFEFD15D9BD93860EC005C623A806014C
:104D500023AA68803ED8C256FD1636D8EDFE23A899
:104D600068803EDAD256FD1636DAEDFE0581FD1575
:104D7000C1B523AA0601E9BF2166D0CBE9BD48CA67
:104D80003ED002567D1632D06DFE23A8A5803ED2BD
:104D900012567D1632D26DFEFD16E5BDB7270140D5
:104DA000896623A8D780B7170140938707C0A166FB
:104DB00005CA94CB9166B727014023AAD7805443F4
:104DC00036C8C247FD173EC8EDFFB7270140116640
:104DD00023A8C78036CAD247FD173ECAEDFFCDB51E
:104DE000D4CBC9BFB7780020138748791433B727CD
:104DF00001400348B70193870780638806268966C8
:104E000094CB1167D8CB98CBD4CBD8CB98CBD8CB7D
:104E100098CB93884879B726014091676312080EB2
:104E200013571500B7170140058B938707C079CF3B
:104E3000216798CBB7270140116693870780B71683
:104E40000140D0CB938606C0984690CB358313762D
:104E5000270013572500058B4DCF216798CA116392
:104E60003717014023AA6700130707C0144723A878
:104E7000670093573500B982858B858AD1CFA167AA
:104E80001CCBB72701409387078011633717014078
:104E900023AA6700130707C0184723A867003183B8
:104EA000118B518F558F8546630BD706896694CB3E
:104EB00023AA670023A86700B7270140916623AAA9
:104EC000D78023A8D780096623AAC78023AAD780C2
:104ED00023A8D780B7170140A16623A8D7C01375B0
:104EE000050819C123A4080083C7C800FD5537254C
:104EF00001409166FD176395B7161375F70F828011
:104F000023AAF68023A8F6807D1809BF2167D8CB95
:104F100015B72167D8CAA1B7A1675CCB9DB79376B7
:104F20002500D1CAFD461163916E371F014023AAA7
:104F3000D701130E0FC003268E00FD1623A8D7013C
:104F400039827E063366060113581600EDF203C659
:104F5000B80183C6A801918E05466383C60423AABF
:104F6000670003268E0023A86700372E0140398290
:104F7000058A9387E6FF116393060E8081EF8967A8
:104F80009CCA9167DCCA9CCA85D97E063366060135
:104F900090C11DB723AA660023A86600FD17E9BFCC
:104FA000896694CB23AA670003268E0023A8670096
:104FB0003982058AD1BF9041FD46B71E0140216369
:104FC000116893751600138E0EC0B1CD23286E00A4
:104FD00023AA070123A80701FD160582FDF283C558
:104FE000B80183C6A801058A8D8E85456387B604FE
:104FF000B7170140938707C015CA216690CBB72722
:105000000140116623AAC78023A8C780B7250140A5
:105010009387E6FF9386058089EF89679CCA91672D
:10502000DCCA9CCA51BD232A6E005DB72166D0CB75
:10503000F9B7D0CA90CAFD17F1BF896694CBB717EC
:105040000140938707C0A16611CA94CBB7270140DE
:10505000916623AAD78023A8D780B9BDD4CBFDB74A
:10506000232AD5802328D58071B5896694CB916693
:10507000D4CB5C4371713ECD6A477D173ACD6DFF4D
:105080003727014091662328D7803ECF7A477D1786
:105090003ACF6DFF372701408966232AD780916672
:1050A000232AD7803ED10A577D173AD16DFF372783
:1050B000014091662328D7803ED31A577D173AD3F3
:1050C0006DFF372701409166232AD7803ED52A57A6
:1050D0007D173AD56DFF3727014091662328D78089
:1050E0003ED73A577D173AD76DFFB7260140116674
:1050F000631D081A9356150037170140858A130758
:1051000007C06384061CA16614CB37270140916653
:10511000232AD780BEDC66577D17BADC6DFF3717B0
:105120000140130707C01847B726014011663983AD
:1051300023A8C680058BBEDEF656FD16B6DEEDFE54
:105140001316170013572500B7160140058B9386D9
:1051500006C0630F0716216798CA3727014091667A
:10516000232AD7803EC18A46FD1636C1EDFE371789
:105170000140130707C018479166398393781700D9
:10518000372701402328D7803EC39A46FD1636C3F1
:10519000EDFE13573500B7160140058B938606C008
:1051A000630B0712216798CA372701409166232AAB
:1051B000D7803EC5AA46FD1636C5EDFE371701401D
:1051C000130707C01847B72601401163398323A886
:1051D0006680058B3EC7BA46FD1636C7EDFE0A0748
:1051E000518F336717018546630AD70EB7260140F2
:1051F000096623A8C680116623AAC680BED8C656F3
:10520000FD16B6D8EDFEB7260140116623A8C6806C
:10521000BEDAD657FD17BEDAEDFFB727014091661B
:1052200023AAD780B777002093864779D042938707
:10523000477932C8C246FD1636C8EDFEB726014092
:10524000916523A8B68032CAD246FD1636CAEDFE55
:10525000B7260140896523AAB680916523AAB68046
:1052600032CCE246FD1636CCEDFEB7260140916504
:1052700023A8B68032CEF246FD1636CEEDFEB71626
:105280000140A16523A8B6C01375050819C123A460
:105290000700D4277D58B72501401165FD16639F8F
:1052A000062B1375F70F4D61828023AAC6803EC975
:1052B0004A477D173AC96DFF23A8C6803ECB5A479F
:1052C0007D173ACB6DFF7D1825B5A16654CB35BD52
:1052D0002167D8CA59B52167D8CAF9B59376250090
:1052E000638F0612B72601407D4393860680116EB8
:1052F000116FB71E014023AAE601BED426567D16C3
:10530000B2D46DFE03A68EC023A8C601BED63982D4
:10531000058AB658FD18C6D6E39D08FE7E0633669C
:1053200006017D1313581600E31703FCB77600201F
:1053300093864679B02EB43E8548158EB726014037
:10534000938606806302160B916823AA1601BED0CD
:105350008656FD16B6D0EDFEB7160140938606C000
:105360009446B72801401163B98223A86880858AD2
:10537000BED29658FD18C6D2E39D08FE7916372393
:105380000140116E9308038015EE096623A8C8003A
:10539000116623AAC800BEC846467D16B2C86DFE77
:1053A00037260140916823281681BECAD647FD17CB
:1053B000BECAEDFFE38305E61396F60133660601E8
:1053C00090C1A1BD23AAC801BECCE648FD18C6CC39
:1053D000E39D08FE2328C381BECEF648FD18C6CE45
:1053E000E39D08FE7D1679BF096690CA1166D0CA92
:1053F000BEC4A646FD16B6C4EDFEB71601409386A0
:1054000006C09446372601409168B9822328168148
:10541000858ABEC6B647FD17BEC6EDFF61BF904187
:10542000B72601407D48B71E0140A16893860680DB
:10543000116E116F9375160013830EC0D5C5232806
:10544000130123AAE601BEC08645FD15AEC0EDFDE1
:1054500023A8C601BEC29645FD15AEC2EDFD7D185E
:105460000582E31908FCB775002093854579B42DB2
:10547000AC3D058A8D8E8545638EB608B715014013
:10548000938505C02DC6216690C9372601409165D8
:10549000232AB6803EDC62567D1632DC6DFE37264E
:1054A000014091652328B6803EDE72567D1632DEBD
:1054B0006DFEF916B72501401168138605809DEA37
:1054C000896614CA916654CA3ED4A256FD1636D4D3
:1054D000EDFEB7260140116623A8C6803ED6B2571E
:1054E000FD173ED6EDFF15BB232A130199BF216698
:1054F000D0C961BF232A06013ED842567D1632D854
:105500006DFE23A805813EDA52567D1632DA6DFE15
:10551000FD1665B7B7260140896523A8B680B71682
:105520000140938606C005CA216690CAB72601408D
:10553000116623AAC6803ED08256FD1636D0EDFEF7
:10554000B7260140116623A8C6803ED29257FD17A8
:105550003ED2EDFFD9B12166D0CAC9BF23AAA5802A
:1055600032C4A247FD173EC4EDFF23A8A58032C672
:10557000B247FD173EC6EDFF15B3B7770020FD5EBD
:105580007D1503A88779014781473726014089683F
:1055900011636316D5018280232A1E0129A84111B7
:1055A00001E79C212147850593F61700130E06801D
:1055B000E5D623281E01232A668042C6B246FD1680
:1055C00036C6EDFE2328668042C4A246FD1636C4C8
:1055D000EDFE7D1585837D17E314D5FD41018280A5
:1055E0009377F503411199E393070004377800207E
:1055F000137505081308487931C937230140116E26
:1056000083284800A14501470DA8232AC38146C22B
:105610009246FD1636C2EDFE832683802328C38181
:1056200046C0B582858A02457D152AC06DFD058379
:105630009E06FD15558FFD1791C1E1FB05063357F9
:10564000B700A30FE6FECDFF41018280372701405E
:1056500003254800130707800968916811638505D1
:1056600003C6F5FF138E87FF937616009DC6232889
:105670000701232A67002AC6B246FD1636C6EDFE8C
:10568000232817012AC4A246FD1636C4EDFEFD17D5
:1056900005826307FE00E9FB45BF232A0701D1BF4E
:1056A000DDFF5DB737760020130746790348170002
:1056B000B72701409376150093870780630A083067
:1056C000096798CB116823AA070123A807011306CD
:1056D00046796384061898CBB72601409167938674
:1056E0000680DCCA9CCA9357150013F7170063089D
:1056F0000716096798CA1167D8CA1358250098CAAF
:1057000033870701137818008967630D08149CCA52
:10571000B7270140916693870780D4CB94CB9356EB
:10572000350013F816002A9763000814096823A8A7
:105730000701116823AA0701369723A80701058BE3
:1057400063080712096798CBB7270140116723AA9E
:10575000E78023A8E780896623AAD78023AAE78069
:1057600023A8E78023A8D78023AAE78023A8E7807F
:1057700003A74780B70600FFB7280140758F23A213
:10578000E78003A74780B7064000558F23A2E78034
:10579000142E1167368893870880631E080C916861
:1057A00023AA170103A3870023A8170123AA17011F
:1057B000984723A8170123AA170103AE8700318356
:1057C00023A817019358BE0093F84800098B33674C
:1057D00017019358D30093F81800336717018548D1
:1057E000631F171593782500639B0808B7280140AD
:1057F000116893870880639C061003A84700B708C8
:1058000000FF09633378180123A2070103A84700AA
:10581000B70830013368180123A207018C4113082F
:105820000002916813FE150063090E0E23A867009D
:1058300023AA170123A817017D18AE968581E313CB
:1058400008FE858AF1CE896694CBB7270140916620
:1058500023AAD78023A8D78041A8D8CBB5BD096794
:10586000D8CA51BDDCCA6DB5096823AA0701D1B5F4
:105870000967D8CBD1BDD8CB98CB7D1829BF81483B
:1058800013030002116E916E23AAD701944793D897
:10589000180023A8D701B582858A36987D13FE06A5
:1058A000B3E81601E31203FE23AAC701944723A815
:1058B000C70193D7D600B347F800858B91C3214722
:1058C00099C123A01501142E372801409165930733
:1058D000088095EAD443B70500FFED8ED4C3D443C6
:1058E000B7053001CD8ED4C31375050819C1232423
:1058F000060054268DEAB7270140896623A8D78081
:105900001375F70F8280CCCB8CCBFD16C9B723AAB9
:10591000070123A80701FD16E9BD23AA670009BFF7
:105920008966D4CB1DB7B7270140096693870780E6
:10593000D0CB1166D0CB90CBFD16EDFE6DBF93059D
:10594000E7FFF59995C511669305F0FDD0CB90CB97
:10595000FD16E39DB6FED443370600FFF18ED4C397
:10596000D44337063001D18ED4C3896694CB49BF66
:105970000C3E95ED37280140116693070880A9E693
:10598000D443370600FFF18ED4C3D4433706300129
:10599000D18ED4C3ADD1098939FD8966D4CB1166C6
:1059A00093061002D0CB90CBFD16EDFEA9B713766F
:1059B000250069D213061002116823AA070123A843
:1059C00007017D167DFA7DB7D0CB90CBFD1675B75C
:1059D000096690CB1166D0CB5C4331713EC10A475A
:1059E0007D173AC16DFF3727014011662328C78014
:1059F0003EC31A477D173AC36DFF3727014013078F
:105A00000780638F0630896614CB37270140916683
:105A1000232AD7803EC52A477D173AC56DFF372711
:105A2000014091662328D7803EC73A477D173AC781
:105A30006DFF13571500B7260140137617009386A4
:105A400006806302062E096690CAB72601401166D9
:105A500023AAC6803EC9CA46FD1636C9EDFEB72642
:105A60000140116623A8C6803ECBDA46FD1636CB30
:105A7000EDFE93562500369713F61600B726014023
:105A8000938606806304062A096690CAB7260140F9
:105A9000116623AAC6803ECDEA46FD1636CDEDFE40
:105AA000B7260140116623A8C6803ECFFA46FD16F0
:105AB00036CFEDFE13563500B72601401378160099
:105AC0002A979386068063060826096823A806019C
:105AD000B7260140116823AA06813ED18A56FD16D9
